{"contracts/HealthLedger.sol":{"HealthLedger":{"abi":[{"inputs":[{"internalType":"address","name":"admin","type":"address"}],"stateMutability":"nonpayable","type":"constructor"},{"inputs":[],"name":"AccessControlBadConfirmation","type":"error"},{"inputs":[{"internalType":"address","name":"account","type":"address"},{"internalType":"bytes32","name":"neededRole","type":"bytes32"}],"name":"AccessControlUnauthorizedAccount","type":"error"},{"anonymous":false,"inputs":[{"indexed":true,"internalType":"bytes32","name":"recordId","type":"bytes32"},{"indexed":true,"internalType":"address","name":"grantee","type":"address"},{"indexed":true,"internalType":"address","name":"granter","type":"address"}],"name":"AccessGranted","type":"event"},{"anonymous":false,"inputs":[{"indexed":true,"internalType":"bytes32","name":"recordId","type":"bytes32"},{"indexed":true,"internalType":"address","name":"grantee","type":"address"},{"indexed":true,"internalType":"address","name":"revoker","type":"address"}],"name":"AccessRevoked","type":"event"},{"anonymous":false,"inputs":[{"indexed":true,"internalType":"bytes32","name":"recordId","type":"bytes32"},{"indexed":true,"internalType":"address","name":"patient","type":"address"},{"indexed":true,"internalType":"address","name":"createdBy","type":"address"},{"indexed":false,"internalType":"string","name":"cid","type":"string"}],"name":"RecordCreated","type":"event"},{"anonymous":false,"inputs":[{"indexed":true,"internalType":"bytes32","name":"recordId","type":"bytes32"},{"indexed":false,"internalType":"string","name":"newCid","type":"string"},{"indexed":false,"internalType":"string","name":"newMeta","type":"string"},{"indexed":true,"internalType":"address","name":"updater","type":"address"}],"name":"RecordUpdated","type":"event"},{"anonymous":false,"inputs":[{"indexed":true,"internalType":"bytes32","name":"role","type":"bytes32"},{"indexed":true,"internalType":"bytes32","name":"previousAdminRole","type":"bytes32"},{"indexed":true,"internalType":"bytes32","name":"newAdminRole","type":"bytes32"}],"name":"RoleAdminChanged","type":"event"},{"anonymous":false,"inputs":[{"indexed":true,"internalType":"bytes32","name":"role","type":"bytes32"},{"indexed":true,"internalType":"address","name":"account","type":"address"},{"indexed":true,"internalType":"address","name":"sender","type":"address"}],"name":"RoleGranted","type":"event"},{"anonymous":false,"inputs":[{"indexed":true,"internalType":"bytes32","name":"role","type":"bytes32"},{"indexed":true,"internalType":"address","name":"account","type":"address"},{"indexed":true,"internalType":"address","name":"sender","type":"address"}],"name":"RoleRevoked","type":"event"},{"inputs":[],"name":"ADMIN_ROLE","outputs":[{"internalType":"bytes32","name":"","type":"bytes32"}],"stateMutability":"view","type":"function"},{"inputs":[],"name":"DEFAULT_ADMIN_ROLE","outputs":[{"internalType":"bytes32","name":"","type":"bytes32"}],"stateMutability":"view","type":"function"},{"inputs":[],"name":"DIAGNOSTIC_ROLE","outputs":[{"internalType":"bytes32","name":"","type":"bytes32"}],"stateMutability":"view","type":"function"},{"inputs":[],"name":"DOCTOR_ROLE","outputs":[{"internalType":"bytes32","name":"","type":"bytes32"}],"stateMutability":"view","type":"function"},{"inputs":[],"name":"PATIENT_ROLE","outputs":[{"internalType":"bytes32","name":"","type":"bytes32"}],"stateMutability":"view","type":"function"},{"inputs":[{"internalType":"address","name":"account","type":"address"}],"name":"addDoctor","outputs":[],"stateMutability":"nonpayable","type":"function"},{"inputs":[{"internalType":"bytes32","name":"recordId","type":"bytes32"},{"internalType":"address","name":"patient","type":"address"},{"internalType":"string","name":"cid","type":"string"},{"internalType":"string","name":"meta","type":"string"}],"name":"createRecord","outputs":[],"stateMutability":"nonpayable","type":"function"},{"inputs":[{"internalType":"uint256","name":"hhNumber","type":"uint256"}],"name":"getDiagnostic","outputs":[{"internalType":"string","name":"","type":"string"},{"internalType":"string","name":"","type":"string"},{"internalType":"string","name":"","type":"string"},{"internalType":"address","name":"","type":"address"}],"stateMutability":"view","type":"function"},{"inputs":[{"internalType":"uint256","name":"hhNumber","type":"uint256"}],"name":"getDoctor","outputs":[{"internalType":"string","name":"","type":"string"},{"internalType":"string","name":"","type":"string"},{"internalType":"string","name":"","type":"string"},{"internalType":"string","name":"","type":"string"},{"internalType":"address","name":"","type":"address"}],"stateMutability":"view","type":"function"},{"inputs":[{"internalType":"address","name":"doctor","type":"address"}],"name":"getDoctorPatients","outputs":[{"internalType":"bytes32[]","name":"","type":"bytes32[]"}],"stateMutability":"view","type":"function"},{"inputs":[{"internalType":"uint256","name":"hhNumber","type":"uint256"}],"name":"getPatient","outputs":[{"internalType":"string","name":"","type":"string"},{"internalType":"uint256","name":"","type":"uint256"},{"internalType":"string","name":"","type":"string"},{"internalType":"string","name":"","type":"string"},{"internalType":"string","name":"","type":"string"},{"internalType":"string","name":"","type":"string"},{"internalType":"address","name":"","type":"address"}],"stateMutability":"view","type":"function"},{"inputs":[{"internalType":"bytes32","name":"recordId","type":"bytes32"}],"name":"getRecord","outputs":[{"internalType":"address","name":"patient","type":"address"},{"internalType":"address","name":"createdBy","type":"address"},{"internalType":"string","name":"cid","type":"string"},{"internalType":"string","name":"meta","type":"string"},{"internalType":"uint256","name":"createdAt","type":"uint256"}],"stateMutability":"view","type":"function"},{"inputs":[{"internalType":"bytes32","name":"role","type":"bytes32"}],"name":"getRoleAdmin","outputs":[{"internalType":"bytes32","name":"","type":"bytes32"}],"stateMutability":"view","type":"function"},{"inputs":[{"internalType":"bytes32","name":"recordId","type":"bytes32"},{"internalType":"address","name":"grantee","type":"address"}],"name":"grantAccess","outputs":[],"stateMutability":"nonpayable","type":"function"},{"inputs":[{"internalType":"bytes32","name":"role","type":"bytes32"},{"internalType":"address","name":"account","type":"address"}],"name":"grantRole","outputs":[],"stateMutability":"nonpayable","type":"function"},{"inputs":[{"internalType":"bytes32","name":"recordId","type":"bytes32"},{"internalType":"address","name":"account","type":"address"}],"name":"hasAccess","outputs":[{"internalType":"bool","name":"","type":"bool"}],"stateMutability":"view","type":"function"},{"inputs":[{"internalType":"bytes32","name":"role","type":"bytes32"},{"internalType":"address","name":"account","type":"address"}],"name":"hasRole","outputs":[{"internalType":"bool","name":"","type":"bool"}],"stateMutability":"view","type":"function"},{"inputs":[{"internalType":"string","name":"name","type":"string"},{"internalType":"string","name":"location","type":"string"},{"internalType":"string","name":"email","type":"string"},{"internalType":"uint256","name":"hhNumber","type":"uint256"},{"internalType":"address","name":"walletAddress","type":"address"}],"name":"registerDiagnostic","outputs":[],"stateMutability":"nonpayable","type":"function"},{"inputs":[{"internalType":"string","name":"name","type":"string"},{"internalType":"string","name":"specialization","type":"string"},{"internalType":"string","name":"hospital","type":"string"},{"internalType":"string","name":"email","type":"string"},{"internalType":"uint256","name":"hhNumber","type":"uint256"},{"internalType":"address","name":"walletAddress","type":"address"}],"name":"registerDoctor","outputs":[],"stateMutability":"nonpayable","type":"function"},{"inputs":[{"internalType":"string","name":"name","type":"string"},{"internalType":"uint256","name":"dob","type":"uint256"},{"internalType":"string","name":"gender","type":"string"},{"internalType":"string","name":"bloodGroup","type":"string"},{"internalType":"string","name":"homeAddress","type":"string"},{"internalType":"string","name":"email","type":"string"},{"internalType":"uint256","name":"hhNumber","type":"uint256"},{"internalType":"address","name":"walletAddress","type":"address"}],"name":"registerPatient","outputs":[],"stateMutability":"nonpayable","type":"function"},{"inputs":[{"internalType":"address","name":"account","type":"address"}],"name":"removeDoctor","outputs":[],"stateMutability":"nonpayable","type":"function"},{"inputs":[{"internalType":"bytes32","name":"role","type":"bytes32"},{"internalType":"address","name":"callerConfirmation","type":"address"}],"name":"renounceRole","outputs":[],"stateMutability":"nonpayable","type":"function"},{"inputs":[{"internalType":"bytes32","name":"recordId","type":"bytes32"},{"internalType":"address","name":"grantee","type":"address"}],"name":"revokeAccess","outputs":[],"stateMutability":"nonpayable","type":"function"},{"inputs":[{"internalType":"bytes32","name":"role","type":"bytes32"},{"internalType":"address","name":"account","type":"address"}],"name":"revokeRole","outputs":[],"stateMutability":"nonpayable","type":"function"},{"inputs":[{"internalType":"bytes4","name":"interfaceId","type":"bytes4"}],"name":"supportsInterface","outputs":[{"internalType":"bool","name":"","type":"bool"}],"stateMutability":"view","type":"function"},{"inputs":[{"internalType":"bytes32","name":"recordId","type":"bytes32"},{"internalType":"string","name":"newCid","type":"string"},{"internalType":"string","name":"newMeta","type":"string"}],"name":"updateRecord","outputs":[],"stateMutability":"nonpayable","type":"function"}],"evm":{"bytecode":{"linkReferences":{},"object":"608034620000b957601f62002d6f38819003918201601f19168301916001600160401b03831184841017620000be57808492602094604052833981010312620000b957516001600160a01b038116808203620000b957156200008357806200006b6200007292620000d4565b5062000154565b50604051612b589081620001f78239f35b60405162461bcd60e51b815260206004820152600e60248201526d18591b5a5b881c995c5d5a5c995960921b6044820152606490fd5b600080fd5b634e487b7160e01b600052604160045260246000fd5b6001600160a01b031660008181527fad3228b676f7d3cd4284a5443f17f1962b36e491b30a40b2405849e597ba5fb5602052604081205490919060ff166200015057818052816020526040822081835260205260408220600160ff19825416179055339160008051602062002d4f8339815191528180a4600190565b5090565b6001600160a01b031660008181527f7d7ffb7a348e1c6a02869081a26547b49160dd3df72d1d75a570eb9b698292ec60205260408120549091907fa49807205ce4d355092ef5a8a18f56e8913cf4a201fbe287825b095693c217759060ff16620001f157808352826020526040832082845260205260408320600160ff1982541617905560008051602062002d4f833981519152339380a4600190565b50509056fe608080604052600436101561001357600080fd5b60003560e01c90816301ffc9a7146122a55750806307b702ba14611e295780630fdf5ca714611aee578063213681cd14611999578063248a9ca31461196a5780632f2ff15d1461192b57806336568abe146118e457806340554c3a146117305780634780468f146116955780635ef33cfe1461160857806369b0a72d1461155657806375b238fc1461152d5780637806d4f914610fae5780637d3a679614610ed357806383177db314610ea35780638d53b20814610daa57806390ec8af314610a1157806391d14854146109c457806398fc90e914610929578063a217fddf1461090d578063ac5cb97d146108d2578063ba508467146106b4578063c6a33ef9146101e7578063c7cdf5af146101ac578063d547741f1461016b5763fec331f21461013d57600080fd5b34610166576000366003190112610166576020604051600080516020612ae38339815191528152f35b600080fd5b34610166576040366003190112610166576101aa60043561018a6122f8565b908060005260006020526101a5600160406000200154612745565b612a4d565b005b346101665760003660031901126101665760206040517f365427a77302f6c15e25fbb39b2016b6cfdc7982b9e30691e61947a1d364ea908152f35b346101665760c0366003190112610166576004356001600160401b03811161016657610217903690600401612324565b906024356001600160401b03811161016657610237903690600401612324565b6044929192356001600160401b03811161016657610259903690600401612324565b9290916064356001600160401b0381116101665761027b903690600401612324565b966084359460a4356001600160a01b0381169590869003610166576102d698610304956102dd6102e6936102f5968b60005260056020526102cc60018060a01b036004604060002001541615612656565b6040519d8e6123d0565b369161240c565b8b52369161240c565b9660208901978852369161240c565b9660408701978852369161240c565b60608501526080840152600052600560205260406000209082518051906001600160401b038211610543576103438261033d8654612452565b8661248c565b602090601f831160011461064c576103749291600091836104ce575b50508160011b916000199060031b1c19161790565b82555b519283516001600160401b038111610543576103a38161039a6001860154612452565b6001860161248c565b6020601f82116001146105dd5781906103d5939495966000926105d25750508160011b916000199060031b1c19161790565b60018301555b519182516001600160401b03811161054357610407816103fe6002860154612452565b6002860161248c565b6020601f82116001146105645781906104389394956000926105595750508160011b916000199060031b1c19161790565b60028301555b600382019160608201519283516001600160401b0381116105435761046d816104678454612452565b8461248c565b6020601f82116001146104d95790806104a092600496976000926104ce5750508160011b916000199060031b1c19161790565b90555b0190608060018060a01b03910151166001600160601b0360a01b8254161790556101aa60a435612789565b01519050878061035f565b601f198216958360005260206000209660005b81811061052b5750916004969791846001959410610512575b505050811b0190556104a3565b015160001960f88460031b161c19169055868080610505565b838301518955600190980197602093840193016104ec565b634e487b7160e01b600052604160045260246000fd5b01519050858061035f565b6002840160005260206000209060005b601f19841681106105ba5750600193949583601f198116106105a1575b505050811b01600283015561043e565b015160001960f88460031b161c19169055848080610591565b9091602060018192858a015181550193019101610574565b01519050868061035f565b6001840160005260206000209060005b601f1984168110610634575060019394959683601f1981161061061b575b505050811b0160018301556103db565b015160001960f88460031b161c1916905585808061060b565b9091602060018192858b0151815501930191016105ed565b90601f198316918560005260206000209260005b81811061069c5750908460019594939210610683575b505050811b018255610377565b015160001960f88460031b161c19169055868080610676565b92936020600181928786015181550195019301610660565b3461016657602080600319360112610166576106ce61230e565b600080516020612ae383398151915260005260008252604060002033600052825260ff6040600020541680156108a2575b8015610884575b61070f90612391565b6001600160a01b0316801561084d57803314801561081d575b80156107fb575b156107c55760005260038152604060002060405190818382549182815201908192600052846000209060005b868282106107b1578686610771828803836123eb565b604051928392818401908285525180915260408401929160005b82811061079a57505050500390f35b83518552869550938101939281019260010161078b565b83548552909301926001928301920161075b565b60405162461bcd60e51b815260048101839052600e60248201526d1b9bdd08185d5d1a1bdc9a5e995960921b6044820152606490fd5b506000805260008252604060002033600052825260ff6040600020541661072f565b50600080516020612b0383398151915260005260008252604060002033600052825260ff60406000205416610728565b60405162461bcd60e51b815260048101839052600f60248201526e191bd8dd1bdc881c995c5d5a5c9959608a1b6044820152606490fd5b5060008080528083526040808220338352845290205460ff16610706565b50600080516020612b0383398151915260005260008252604060002033600052825260ff604060002054166106ff565b346101665760003660031901126101665760206040517f72606200fac42b7dc86b75901d61ecfab2a4a1a6eded478b97a428094891abed8152f35b3461016657600036600319011261016657602060405160008152f35b34610166576020366003190112610166576101aa61094561230e565b3360009081527f7d7ffb7a348e1c6a02869081a26547b49160dd3df72d1d75a570eb9b698292ec602052604090205460ff16801561098c575b6109879061261e565b6129b4565b503360009081527fad3228b676f7d3cd4284a5443f17f1962b36e491b30a40b2405849e597ba5fb5602052604090205460ff1661097e565b34610166576040366003190112610166576109dd6122f8565b600435600052600060205260406000209060018060a01b0316600052602052602060ff604060002054166040519015158152f35b346101665760a0366003190112610166576004356001600160401b03811161016657610a41903690600401612324565b6024356001600160401b03811161016657610a60903690600401612324565b91906044356001600160401b03811161016657610a81903690600401612324565b9490916084356001600160a01b038116900361016657606435600090815260066020526040902060030154610abf906001600160a01b031615612656565b604051948560808101106001600160401b0360808801111761054357610af4610afd93610b0c9660808901604052369161240c565b8652369161240c565b9360208401948552369161240c565b9060408101918252606081019160018060a01b036084351683526064356000526006602052604060002091518051906001600160401b03821161054357610b578261033d8654612452565b602090601f8311600114610d4257610b879291600091836104ce5750508160011b916000199060031b1c19161790565b82555b60019384830190518051906001600160401b03821161054357610bb782610bb18554612452565b8561248c565b602090601f8311600114610cdf57610be7929160009183610cd45750508160011b916000199060031b1c19161790565b90555b600282019051938451906001600160401b03821161054357610c1082610bb18554612452565b602090601f8311600114610c7057509080610c4592600396976000926104ce5750508160011b916000199060031b1c19161790565b90555b019060018060a01b039051166001600160601b0360a01b8254161790556101aa6084356128b2565b9190601f198216908460005260206000209160005b818110610cbe575097836003989910610ca6575b505050811b019055610c48565b015160001983881b60f8161c19169055868080610c99565b8983015184559285019260209283019201610c85565b01519050888061035f565b879291601f198316918560005260206000209260005b818110610d2a57508411610d11575b505050811b019055610bea565b015160001960f88460031b161c19169055878080610d04565b8284015185558b969094019360209384019301610cf5565b90601f198316918560005260206000209260005b818110610d925750908460019594939210610d79575b505050811b018255610b8a565b015160001960f88460031b161c19169055868080610d6c565b92936020600181928786015181550195019301610d56565b3461016657604036600319011261016657600435610dc66122f8565b81600052602090600182526040600020610de560048201541515612503565b546001600160a01b0390811633148015610e73575b8015610e55575b610e0a906125e0565b836000526002835260406000209116918260005252604060002060ff19815416905533917ffab19bdeacf1ea13315b1da3f79a3403fe4f16793b6a03eeff9e0bbbea24fe5f600080a4005b5060008080528084526040808220338352855290205460ff16610e01565b50600080516020612b0383398151915260005260008352604060002033600052835260ff60406000205416610dfa565b34610166576040366003190112610166576020610ec9610ec16122f8565b6004356126a2565b6040519015158152f35b34610166576020366003190112610166576004356000526004602052610f6760406000206001810154610fa460018060a01b0360068401541691610f96610f198561253b565b94610f88610f296002830161253b565b93610f7a610f396003850161253b565b91610f526005610f4b6004880161253b565b960161253b565b966040519b8c9b60e08d5260e08d0190612351565b9160208c01528a820360408c0152612351565b9088820360608a0152612351565b908682036080880152612351565b9084820360a0860152612351565b9060c08301520390f35b3461016657610100366003190112610166576004356001600160401b03811161016657610fdf903690600401612324565b6044356001600160401b03811161016657610ffe903690600401612324565b90916064356001600160401b0381116101665761101f903690600401612324565b9290916084356001600160401b03811161016657611041903690600401612324565b909160a4356001600160401b03811161016657611062903690600401612324565b909690959060e4356001600160a01b03811690036101665760c4356000908152600460205260409020600601546110a2906001600160a01b031615612656565b604051998a60e08101106001600160401b0360e08d0111176105435761111499611108976110df6110f0936110fc978f60e001604052369161240c565b8d5260243560208e0152369161240c565b60408b0152369161240c565b6060880152369161240c565b6080850152369161240c565b60a082015260018060a01b0360e4351660c082015260c4356000526004602052604060002081519182516001600160401b0381116105435761115a81610bb18554612452565b6020601f82116001146114c557819061118b9394956000926105595750508160011b916000199060031b1c19161790565b82555b6001916020820151838201556002810160408301518051906001600160401b038211610543576111c282610bb18554612452565b602090601f8311600114611462576111f29291600091836104ce5750508160011b916000199060031b1c19161790565b90555b6003810160608301518051906001600160401b0382116105435761121d82610bb18554612452565b602090601f83116001146113ff5761124d9291600091836104ce5750508160011b916000199060031b1c19161790565b90555b6004810160808301518051906001600160401b0382116105435761127882610bb18554612452565b602090601f831160011461139c576112a89291600091836104ce5750508160011b916000199060031b1c19161790565b90555b6005810160a0830151938451906001600160401b038211610543576112d482610bb18554612452565b602090601f83116001146113375750908061130992600696976000926104ce5750508160011b916000199060031b1c19161790565b90555b019060c060018060a01b03910151166001600160601b0360a01b8254161790556101aa60e435612817565b9190601f198216908460005260206000209160005b81811061138657509783600698991061136d575b505050811b01905561130c565b015160001960f88460031b161c19169055868080611360565b898301518455928501926020928301920161134c565b869291601f198316918560005260206000209260005b8181106113e7575084116113ce575b505050811b0190556112ab565b015160001960f88460031b161c191690558680806113c1565b8284015185558a9690940193602093840193016113b2565b869291601f198316918560005260206000209260005b81811061144a57508411611431575b505050811b019055611250565b015160001960f88460031b161c19169055868080611424565b8284015185558a969094019360209384019301611415565b869291601f198316918560005260206000209260005b8181106114ad57508411611494575b505050811b0190556111f5565b015160001960f88460031b161c19169055868080611487565b8284015185558a969094019360209384019301611478565b8360005260206000209060005b601f19841681106115155750600193949583601f198116106114fc575b505050811b01825561118e565b015160001960f88460031b161c191690558480806114ef565b9091602060018192858a0151815501930191016114d2565b34610166576000366003190112610166576020604051600080516020612b038339815191528152f35b346101665760203660031901126101665760043560005260056020526115d4604060002060018060a01b036004820154166115fe6115938361253b565b926115f06115a36001830161253b565b916115e26115bf60036115b86002850161253b565b930161253b565b9360405198899860a08a5260a08a0190612351565b9088820360208a0152612351565b908682036040880152612351565b908482036060860152612351565b9060808301520390f35b3461016657602036600319011261016657600435600052600660205261166f604060002060018060a01b0360038201541661168b6116458361253b565b9261167d61165a60026115b86001850161253b565b91604051968796608088526080880190612351565b908682036020880152612351565b908482036040860152612351565b9060608301520390f35b34610166576020366003190112610166576101aa6116b161230e565b3360009081527f7d7ffb7a348e1c6a02869081a26547b49160dd3df72d1d75a570eb9b698292ec602052604090205460ff1680156116f8575b6116f39061261e565b612789565b503360009081527fad3228b676f7d3cd4284a5443f17f1962b36e491b30a40b2405849e597ba5fb5602052604090205460ff166116ea565b346101665760403660031901126101665760043561174c6122f8565b8160005260206001815260406000209161176b60048401541515612503565b6001600160a01b039081169283156118b157541633148015611881575b8015611863575b611798906125e0565b600080516020612ae383398151915260005260008152604060002082600052815260ff60406000205416611813575b826000526002815260406000209082600052526040600020600160ff1982541617905533917f7aeffe35f64b55a7c424c5fccc3fba0f3ac4ebd764cc737855b8734834458f2b600080a4005b600381526040600020805468010000000000000000811015610543576001810180835581101561184d5784916000528260002001556117c7565b634e487b7160e01b600052603260045260246000fd5b5060008080528082526040808220338352835290205460ff1661178f565b50600080516020612b0383398151915260005260008152604060002033600052815260ff60406000205416611788565b60405162461bcd60e51b815260048101849052600b60248201526a626164206772616e74656560a81b6044820152606490fd5b34610166576040366003190112610166576118fd6122f8565b336001600160a01b03821603611919576101aa90600435612a4d565b60405163334bd91960e11b8152600490fd5b34610166576040366003190112610166576101aa60043561194a6122f8565b90806000526000602052611965600160406000200154612745565b61294d565b346101665760203660031901126101665760043560005260006020526020600160406000200154604051908152f35b34610166576020806003193601126101665760043580600052600182526040600020906004820154906119cd821515612503565b600080516020612b0383398151915260005260008452604060002033600052845260ff60406000205416908115611aca575b8115611ab6575b8115611a93575b5015611a62576115fe60018060a01b03926115f0848254169460018301541691611a456003611a3e6002840161253b565b920161253b565b92604051978897885287015260a0604087015260a0860190612351565b60405162461bcd60e51b81526004810184905260096024820152686e6f2061636365737360b81b6044820152606490fd5b905060005260028352604060002033600052835260ff6040600020541684611a0d565b83546001600160a01b031633149150611a06565b90506000805260008452604060002033600052845260ff60406000205416906119ff565b34610166576060366003190112610166576001600160401b0360043560243582811161016657611b22903690600401612324565b60443584811161016657611b3a903690600401612324565b846000969296526001916020928084526040600020611b5e60048201541515612503565b600080516020612b0383398151915260005260008552604060002033600052855260ff604060002054168015611e07575b8015611df4575b8015611dd2575b15611d9d57600281019083871161054357611bbc876104678454612452565b60009187601f8111600114611d315780611bef91600395600091611d26575b508160011b916000199060031b1c19161790565b90555b0191831161054357611c08836104678454612452565b600090601f8411600114611c9a5750917f8f9586b5cb9b032c0c4e4176d5e760b09b3ab8ebef35a13a6edd4e28f13d858495949391611c618280611c8a96600091611c8f57508160011b916000199060031b1c19161790565b90555b611c7b6040519586956040875260408701916124e2565b918483039085015233976124e2565b0390a3005b90508b01358c611bdb565b90601f1984169083600052856000209160005b8b828210611d1257505091859391611c8a967f8f9586b5cb9b032c0c4e4176d5e760b09b3ab8ebef35a13a6edd4e28f13d85849a9998969410611cf8575b505082811b019055611c64565b8b0135600019600386901b60f8161c191690558a80611ceb565b830135845592840192918701918701611cad565b90508b01358e611bdb565b508892601f198916908260005289896000209260005b8b89838310611d83575050506003965010611d6b575b50508388811b019055611bf2565b8a01356000198a861b60f8161c191690558b80611d5d565b9885013586558e989590950194938401938d935001611d47565b60405162461bcd60e51b815260048101869052600d60248201526c3737903832b936b4b9b9b4b7b760991b6044820152606490fd5b508760005260028552604060002033600052855260ff60406000205416611b9d565b5080546001600160a01b03163314611b96565b506000805260008552604060002033600052855260ff60406000205416611b8f565b3461016657608036600319011261016657611e426122f8565b6001600160401b0360443581811161016657611e62903690600401612324565b909160643581811161016657611e7c903690600401612324565b3360009081527fdf1cb6f79b8687a60e91aced08290a53cb47a179b80c0c7c836d1c923c9a5647602052604090205460ff16801561226d575b8015612235575b611ec590612391565b6001600160a01b0392868416156121fd5760043560005260016020526004604060002001546121cf5760405191611efb836123d0565b8488168352611f256020840194338652611f1636898b61240c565b9260408601938452369161240c565b60608401524260808401526004356000526001602052604060002093858451166001600160601b0360a01b908187541617865586600187019251169082541617905560028401905180519083821161054357611f8582610bb18554612452565b602090601f831160011461216757611fb592916000918361215c5750508160011b916000199060031b1c19161790565b90555b6060820151805191821161054357611fe082611fd76003870154612452565b6003870161248c565b602090601f83116001146120c2577e73d3c2a84f8f8e279a002e4d9d8aed780efae1e49ef555bd671d416a3f9d86959361203b846120b297956004956080956000926120b75750508160011b916000199060031b1c19161790565b60038501555b015191015560043560005260026020526040600020818716600052602052604060002060ff19906001828254161790556004356000526002602052604060002033600052602052600160406000209182541617905560405191829160208352339716956004359560208401916124e2565b0390a4005b015190508d8061035f565b906003850160005260206000209160005b601f19851681106121445750936001846004946080947e73d3c2a84f8f8e279a002e4d9d8aed780efae1e49ef555bd671d416a3f9d869a986120b29a98601f1981161061212b575b505050811b016003850155612041565b015160001960f88460031b161c191690558c808061211b565b919260206001819286850151815501940192016120d3565b015190508b8061035f565b90601f198316918460005260206000209260005b8181106121b7575090846001959493921061219e575b505050811b019055611fb8565b015160001960f88460031b161c191690558a8080612191565b9293602060018192878601518155019501930161217b565b60405162461bcd60e51b815260206004820152600660248201526565786973747360d01b6044820152606490fd5b60405162461bcd60e51b815260206004820152601060248201526f1c185d1a595b9d081c995c5d5a5c995960821b6044820152606490fd5b503360009081527fad3228b676f7d3cd4284a5443f17f1962b36e491b30a40b2405849e597ba5fb5602052604090205460ff16611ebc565b503360009081527f7d7ffb7a348e1c6a02869081a26547b49160dd3df72d1d75a570eb9b698292ec602052604090205460ff16611eb5565b34610166576020366003190112610166576004359063ffffffff60e01b821680920361016657602091637965db0b60e01b81149081156122e7575b5015158152f35b6301ffc9a760e01b149050836122e0565b602435906001600160a01b038216820361016657565b600435906001600160a01b038216820361016657565b9181601f84011215610166578235916001600160401b038311610166576020838186019501011161016657565b919082519283825260005b84811061237d575050826000602080949584010152601f8019910116010190565b60208183018101518483018201520161235c565b1561239857565b60405162461bcd60e51b815260206004820152601060248201526f3737ba103237b1ba37b917b0b236b4b760811b6044820152606490fd5b60a081019081106001600160401b0382111761054357604052565b90601f801991011681019081106001600160401b0382111761054357604052565b9291926001600160401b0382116105435760405191612435601f8201601f1916602001846123eb565b829481845281830111610166578281602093846000960137010152565b90600182811c92168015612482575b602083101461246c57565b634e487b7160e01b600052602260045260246000fd5b91607f1691612461565b90601f811161249a57505050565b6000916000526020600020906020601f850160051c830194106124d8575b601f0160051c01915b8281106124cd57505050565b8181556001016124c1565b90925082906124b8565b908060209392818452848401376000828201840152601f01601f1916010190565b1561250a57565b60405162461bcd60e51b81526020600482015260096024820152681b9bdd08199bdd5b9960ba1b6044820152606490fd5b9060405191826000825461254e81612452565b908184526020946001916001811690816000146125be575060011461257f575b50505061257d925003836123eb565b565b600090815285812095935091905b8183106125a657505061257d935082010138808061256e565b8554888401850152948501948794509183019161258d565b9250505061257d94925060ff191682840152151560051b82010138808061256e565b156125e757565b60405162461bcd60e51b815260206004820152600f60248201526e3737ba1037bbb732b917b0b236b4b760891b6044820152606490fd5b1561262557565b60405162461bcd60e51b81526020600482015260096024820152683737ba1030b236b4b760b91b6044820152606490fd5b1561265d57565b60405162461bcd60e51b815260206004820152601c60248201527f4848204e756d62657220616c72656164792072656769737465726564000000006044820152606490fd5b9060008281526020916001835260409283832060048101541561273c57546001600160a01b039283169216821461271757600080516020612b038339815191528352828152838320828452815260ff84842054168015612721575b6127175760ff948352600281528383209183525220541690565b5050505050600190565b50828052828152838320828452815260ff84842054166126fd565b50505091505090565b80600052600060205260406000203360005260205260ff604060002054161561276b5750565b6044906040519063e2517d3f60e01b82523360048301526024820152fd5b6001600160a01b031660008181527fdf1cb6f79b8687a60e91aced08290a53cb47a179b80c0c7c836d1c923c9a56476020526040812054909190600080516020612ae38339815191529060ff1661281257808352826020526040832082845260205260408320600160ff19825416179055600080516020612ac3833981519152339380a4600190565b505090565b6001600160a01b031660008181527f01269c68c28a67305f4a2d47532888d6c961251cfcb06c9cdb6066d32b24b32060205260408120549091907f72606200fac42b7dc86b75901d61ecfab2a4a1a6eded478b97a428094891abed9060ff1661281257808352826020526040832082845260205260408320600160ff19825416179055600080516020612ac3833981519152339380a4600190565b6001600160a01b031660008181527f232d22163c77b4a0f291591077ef3091c0cb2e3ee6d9de0538d0edea819cad5a60205260408120549091907f365427a77302f6c15e25fbb39b2016b6cfdc7982b9e30691e61947a1d364ea909060ff1661281257808352826020526040832082845260205260408320600160ff19825416179055600080516020612ac3833981519152339380a4600190565b9060009180835282602052604083209160018060a01b03169182845260205260ff6040842054161560001461281257808352826020526040832082845260205260408320600160ff19825416179055600080516020612ac3833981519152339380a4600190565b6001600160a01b031660008181527fdf1cb6f79b8687a60e91aced08290a53cb47a179b80c0c7c836d1c923c9a56476020526040812054909190600080516020612ae38339815191529060ff16156128125780835282602052604083208284526020526040832060ff1981541690557ff6391f5c32d9c69d2a47ea670b442974b53935d1edc7fd64eb21e047a839171b339380a4600190565b9060009180835282602052604083209160018060a01b03169182845260205260ff6040842054166000146128125780835282602052604083208284526020526040832060ff1981541690557ff6391f5c32d9c69d2a47ea670b442974b53935d1edc7fd64eb21e047a839171b339380a460019056fe2f8788117e7eff1d82e926ec794901d17c78024a50270940304540a733656f0d0af1dac7dea2fd7f7738119cec7df099dfad49aa9d2e7d17ba6b60f63ae7411fa49807205ce4d355092ef5a8a18f56e8913cf4a201fbe287825b095693c21775a2646970667358221220d5a7538d11b4b553cbfaf2c85a2525cc256599cef2ec6445468e796e285dbc2c64736f6c634300081800332f8788117e7eff1d82e926ec794901d17c78024a50270940304540a733656f0d","opcodes":"PUSH1 0x80 CALLVALUE PUSH3 0xB9 JUMPI PUSH1 0x1F PUSH3 0x2D6F CODESIZE DUP2 SWAP1 SUB SWAP2 DUP3 ADD PUSH1 0x1F NOT AND DUP4 ADD SWAP2 PUSH1 0x1 PUSH1 0x1 PUSH1 0x40 SHL SUB DUP4 GT DUP5 DUP5 LT OR PUSH3 0xBE JUMPI DUP1 DUP5 SWAP3 PUSH1 0x20 SWAP5 PUSH1 0x40 MSTORE DUP4 CODECOPY DUP2 ADD SUB SLT PUSH3 0xB9 JUMPI MLOAD PUSH1 0x1 PUSH1 0x1 PUSH1 0xA0 SHL SUB DUP2 AND DUP1 DUP3 SUB PUSH3 0xB9 JUMPI ISZERO PUSH3 0x83 JUMPI DUP1 PUSH3 0x6B PUSH3 0x72 SWAP3 PUSH3 0xD4 JUMP JUMPDEST POP PUSH3 0x154 JUMP JUMPDEST POP PUSH1 0x40 MLOAD PUSH2 0x2B58 SWAP1 DUP2 PUSH3 0x1F7 DUP3 CODECOPY RETURN JUMPDEST PUSH1 0x40 MLOAD PUSH3 0x461BCD PUSH1 0xE5 SHL DUP2 MSTORE PUSH1 0x20 PUSH1 0x4 DUP3 ADD MSTORE PUSH1 0xE PUSH1 0x24 DUP3 ADD MSTORE PUSH14 0x18591B5A5B881C995C5D5A5C9959 PUSH1 0x92 SHL PUSH1 0x44 DUP3 ADD MSTORE PUSH1 0x64 SWAP1 REVERT JUMPDEST PUSH1 0x0 DUP1 REVERT JUMPDEST PUSH4 0x4E487B71 PUSH1 0xE0 SHL PUSH1 0x0 MSTORE PUSH1 0x41 PUSH1 0x4 MSTORE PUSH1 0x24 PUSH1 0x0 REVERT JUMPDEST PUSH1 0x1 PUSH1 0x1 PUSH1 0xA0 SHL SUB AND PUSH1 0x0 DUP2 DUP2 MSTORE PUSH32 0xAD3228B676F7D3CD4284A5443F17F1962B36E491B30A40B2405849E597BA5FB5 PUSH1 0x20 MSTORE PUSH1 0x40 DUP2 KECCAK256 SLOAD SWAP1 SWAP2 SWAP1 PUSH1 0xFF AND PUSH3 0x150 JUMPI DUP2 DUP1 MSTORE DUP2 PUSH1 0x20 MSTORE PUSH1 0x40 DUP3 KECCAK256 DUP2 DUP4 MSTORE PUSH1 0x20 MSTORE PUSH1 0x40 DUP3 KECCAK256 PUSH1 0x1 PUSH1 0xFF NOT DUP3 SLOAD AND OR SWAP1 SSTORE CALLER SWAP2 PUSH1 0x0 DUP1 MLOAD PUSH1 0x20 PUSH3 0x2D4F DUP4 CODECOPY DUP2 MLOAD SWAP2 MSTORE DUP2 DUP1 LOG4 PUSH1 0x1 SWAP1 JUMP JUMPDEST POP SWAP1 JUMP JUMPDEST PUSH1 0x1 PUSH1 0x1 PUSH1 0xA0 SHL SUB AND PUSH1 0x0 DUP2 DUP2 MSTORE PUSH32 0x7D7FFB7A348E1C6A02869081A26547B49160DD3DF72D1D75A570EB9B698292EC PUSH1 0x20 MSTORE PUSH1 0x40 DUP2 KECCAK256 SLOAD SWAP1 SWAP2 SWAP1 PUSH32 0xA49807205CE4D355092EF5A8A18F56E8913CF4A201FBE287825B095693C21775 SWAP1 PUSH1 0xFF AND PUSH3 0x1F1 JUMPI DUP1 DUP4 MSTORE DUP3 PUSH1 0x20 MSTORE PUSH1 0x40 DUP4 KECCAK256 DUP3 DUP5 MSTORE PUSH1 0x20 MSTORE PUSH1 0x40 DUP4 KECCAK256 PUSH1 0x1 PUSH1 0xFF NOT DUP3 SLOAD AND OR SWAP1 SSTORE PUSH1 0x0 DUP1 MLOAD PUSH1 0x20 PUSH3 0x2D4F DUP4 CODECOPY DUP2 MLOAD SWAP2 MSTORE CALLER SWAP4 DUP1 LOG4 PUSH1 0x1 SWAP1 JUMP JUMPDEST POP POP SWAP1 JUMP INVALID PUSH1 0x80 DUP1 PUSH1 0x40 MSTORE PUSH1 0x4 CALLDATASIZE LT ISZERO PUSH2 0x13 JUMPI PUSH1 0x0 DUP1 REVERT JUMPDEST PUSH1 0x0 CALLDATALOAD PUSH1 0xE0 SHR SWAP1 DUP2 PUSH4 0x1FFC9A7 EQ PUSH2 0x22A5 JUMPI POP DUP1 PUSH4 0x7B702BA EQ PUSH2 0x1E29 JUMPI DUP1 PUSH4 0xFDF5CA7 EQ PUSH2 0x1AEE JUMPI DUP1 PUSH4 0x213681CD EQ PUSH2 0x1999 JUMPI DUP1 PUSH4 0x248A9CA3 EQ PUSH2 0x196A JUMPI DUP1 PUSH4 0x2F2FF15D EQ PUSH2 0x192B JUMPI DUP1 PUSH4 0x36568ABE EQ PUSH2 0x18E4 JUMPI DUP1 PUSH4 0x40554C3A EQ PUSH2 0x1730 JUMPI DUP1 PUSH4 0x4780468F EQ PUSH2 0x1695 JUMPI DUP1 PUSH4 0x5EF33CFE EQ PUSH2 0x1608 JUMPI DUP1 PUSH4 0x69B0A72D EQ PUSH2 0x1556 JUMPI DUP1 PUSH4 0x75B238FC EQ PUSH2 0x152D JUMPI DUP1 PUSH4 0x7806D4F9 EQ PUSH2 0xFAE JUMPI DUP1 PUSH4 0x7D3A6796 EQ PUSH2 0xED3 JUMPI DUP1 PUSH4 0x83177DB3 EQ PUSH2 0xEA3 JUMPI DUP1 PUSH4 0x8D53B208 EQ PUSH2 0xDAA JUMPI DUP1 PUSH4 0x90EC8AF3 EQ PUSH2 0xA11 JUMPI DUP1 PUSH4 0x91D14854 EQ PUSH2 0x9C4 JUMPI DUP1 PUSH4 0x98FC90E9 EQ PUSH2 0x929 JUMPI DUP1 PUSH4 0xA217FDDF EQ PUSH2 0x90D JUMPI DUP1 PUSH4 0xAC5CB97D EQ PUSH2 0x8D2 JUMPI DUP1 PUSH4 0xBA508467 EQ PUSH2 0x6B4 JUMPI DUP1 PUSH4 0xC6A33EF9 EQ PUSH2 0x1E7 JUMPI DUP1 PUSH4 0xC7CDF5AF EQ PUSH2 0x1AC JUMPI DUP1 PUSH4 0xD547741F EQ PUSH2 0x16B JUMPI PUSH4 0xFEC331F2 EQ PUSH2 0x13D JUMPI PUSH1 0x0 DUP1 REVERT JUMPDEST CALLVALUE PUSH2 0x166 JUMPI PUSH1 0x0 CALLDATASIZE PUSH1 0x3 NOT ADD SLT PUSH2 0x166 JUMPI PUSH1 0x20 PUSH1 0x40 MLOAD PUSH1 0x0 DUP1 MLOAD PUSH1 0x20 PUSH2 0x2AE3 DUP4 CODECOPY DUP2 MLOAD SWAP2 MSTORE DUP2 MSTORE RETURN JUMPDEST PUSH1 0x0 DUP1 REVERT JUMPDEST CALLVALUE PUSH2 0x166 JUMPI PUSH1 0x40 CALLDATASIZE PUSH1 0x3 NOT ADD SLT PUSH2 0x166 JUMPI PUSH2 0x1AA PUSH1 0x4 CALLDATALOAD PUSH2 0x18A PUSH2 0x22F8 JUMP JUMPDEST SWAP1 DUP1 PUSH1 0x0 MSTORE PUSH1 0x0 PUSH1 0x20 MSTORE PUSH2 0x1A5 PUSH1 0x1 PUSH1 0x40 PUSH1 0x0 KECCAK256 ADD SLOAD PUSH2 0x2745 JUMP JUMPDEST PUSH2 0x2A4D JUMP JUMPDEST STOP JUMPDEST CALLVALUE PUSH2 0x166 JUMPI PUSH1 0x0 CALLDATASIZE PUSH1 0x3 NOT ADD SLT PUSH2 0x166 JUMPI PUSH1 0x20 PUSH1 0x40 MLOAD PUSH32 0x365427A77302F6C15E25FBB39B2016B6CFDC7982B9E30691E61947A1D364EA90 DUP2 MSTORE RETURN JUMPDEST CALLVALUE PUSH2 0x166 JUMPI PUSH1 0xC0 CALLDATASIZE PUSH1 0x3 NOT ADD SLT PUSH2 0x166 JUMPI PUSH1 0x4 CALLDATALOAD PUSH1 0x1 PUSH1 0x1 PUSH1 0x40 SHL SUB DUP2 GT PUSH2 0x166 JUMPI PUSH2 0x217 SWAP1 CALLDATASIZE SWAP1 PUSH1 0x4 ADD PUSH2 0x2324 JUMP JUMPDEST SWAP1 PUSH1 0x24 CALLDATALOAD PUSH1 0x1 PUSH1 0x1 PUSH1 0x40 SHL SUB DUP2 GT PUSH2 0x166 JUMPI PUSH2 0x237 SWAP1 CALLDATASIZE SWAP1 PUSH1 0x4 ADD PUSH2 0x2324 JUMP JUMPDEST PUSH1 0x44 SWAP3 SWAP2 SWAP3 CALLDATALOAD PUSH1 0x1 PUSH1 0x1 PUSH1 0x40 SHL SUB DUP2 GT PUSH2 0x166 JUMPI PUSH2 0x259 SWAP1 CALLDATASIZE SWAP1 PUSH1 0x4 ADD PUSH2 0x2324 JUMP JUMPDEST SWAP3 SWAP1 SWAP2 PUSH1 0x64 CALLDATALOAD PUSH1 0x1 PUSH1 0x1 PUSH1 0x40 SHL SUB DUP2 GT PUSH2 0x166 JUMPI PUSH2 0x27B SWAP1 CALLDATASIZE SWAP1 PUSH1 0x4 ADD PUSH2 0x2324 JUMP JUMPDEST SWAP7 PUSH1 0x84 CALLDATALOAD SWAP5 PUSH1 0xA4 CALLDATALOAD PUSH1 0x1 PUSH1 0x1 PUSH1 0xA0 SHL SUB DUP2 AND SWAP6 SWAP1 DUP7 SWAP1 SUB PUSH2 0x166 JUMPI PUSH2 0x2D6 SWAP9 PUSH2 0x304 SWAP6 PUSH2 0x2DD PUSH2 0x2E6 SWAP4 PUSH2 0x2F5 SWAP7 DUP12 PUSH1 0x0 MSTORE PUSH1 0x5 PUSH1 0x20 MSTORE PUSH2 0x2CC PUSH1 0x1 DUP1 PUSH1 0xA0 SHL SUB PUSH1 0x4 PUSH1 0x40 PUSH1 0x0 KECCAK256 ADD SLOAD AND ISZERO PUSH2 0x2656 JUMP JUMPDEST PUSH1 0x40 MLOAD SWAP14 DUP15 PUSH2 0x23D0 JUMP JUMPDEST CALLDATASIZE SWAP2 PUSH2 0x240C JUMP JUMPDEST DUP12 MSTORE CALLDATASIZE SWAP2 PUSH2 0x240C JUMP JUMPDEST SWAP7 PUSH1 0x20 DUP10 ADD SWAP8 DUP9 MSTORE CALLDATASIZE SWAP2 PUSH2 0x240C JUMP JUMPDEST SWAP7 PUSH1 0x40 DUP8 ADD SWAP8 DUP9 MSTORE CALLDATASIZE SWAP2 PUSH2 0x240C JUMP JUMPDEST PUSH1 0x60 DUP6 ADD MSTORE PUSH1 0x80 DUP5 ADD MSTORE PUSH1 0x0 MSTORE PUSH1 0x5 PUSH1 0x20 MSTORE PUSH1 0x40 PUSH1 0x0 KECCAK256 SWAP1 DUP3 MLOAD DUP1 MLOAD SWAP1 PUSH1 0x1 PUSH1 0x1 PUSH1 0x40 SHL SUB DUP3 GT PUSH2 0x543 JUMPI PUSH2 0x343 DUP3 PUSH2 0x33D DUP7 SLOAD PUSH2 0x2452 JUMP JUMPDEST DUP7 PUSH2 0x248C JUMP JUMPDEST PUSH1 0x20 SWAP1 PUSH1 0x1F DUP4 GT PUSH1 0x1 EQ PUSH2 0x64C JUMPI PUSH2 0x374 SWAP3 SWAP2 PUSH1 0x0 SWAP2 DUP4 PUSH2 0x4CE JUMPI JUMPDEST POP POP DUP2 PUSH1 0x1 SHL SWAP2 PUSH1 0x0 NOT SWAP1 PUSH1 0x3 SHL SHR NOT AND OR SWAP1 JUMP JUMPDEST DUP3 SSTORE JUMPDEST MLOAD SWAP3 DUP4 MLOAD PUSH1 0x1 PUSH1 0x1 PUSH1 0x40 SHL SUB DUP2 GT PUSH2 0x543 JUMPI PUSH2 0x3A3 DUP2 PUSH2 0x39A PUSH1 0x1 DUP7 ADD SLOAD PUSH2 0x2452 JUMP JUMPDEST PUSH1 0x1 DUP7 ADD PUSH2 0x248C JUMP JUMPDEST PUSH1 0x20 PUSH1 0x1F DUP3 GT PUSH1 0x1 EQ PUSH2 0x5DD JUMPI DUP2 SWAP1 PUSH2 0x3D5 SWAP4 SWAP5 SWAP6 SWAP7 PUSH1 0x0 SWAP3 PUSH2 0x5D2 JUMPI POP POP DUP2 PUSH1 0x1 SHL SWAP2 PUSH1 0x0 NOT SWAP1 PUSH1 0x3 SHL SHR NOT AND OR SWAP1 JUMP JUMPDEST PUSH1 0x1 DUP4 ADD SSTORE JUMPDEST MLOAD SWAP2 DUP3 MLOAD PUSH1 0x1 PUSH1 0x1 PUSH1 0x40 SHL SUB DUP2 GT PUSH2 0x543 JUMPI PUSH2 0x407 DUP2 PUSH2 0x3FE PUSH1 0x2 DUP7 ADD SLOAD PUSH2 0x2452 JUMP JUMPDEST PUSH1 0x2 DUP7 ADD PUSH2 0x248C JUMP JUMPDEST PUSH1 0x20 PUSH1 0x1F DUP3 GT PUSH1 0x1 EQ PUSH2 0x564 JUMPI DUP2 SWAP1 PUSH2 0x438 SWAP4 SWAP5 SWAP6 PUSH1 0x0 SWAP3 PUSH2 0x559 JUMPI POP POP DUP2 PUSH1 0x1 SHL SWAP2 PUSH1 0x0 NOT SWAP1 PUSH1 0x3 SHL SHR NOT AND OR SWAP1 JUMP JUMPDEST PUSH1 0x2 DUP4 ADD SSTORE JUMPDEST PUSH1 0x3 DUP3 ADD SWAP2 PUSH1 0x60 DUP3 ADD MLOAD SWAP3 DUP4 MLOAD PUSH1 0x1 PUSH1 0x1 PUSH1 0x40 SHL SUB DUP2 GT PUSH2 0x543 JUMPI PUSH2 0x46D DUP2 PUSH2 0x467 DUP5 SLOAD PUSH2 0x2452 JUMP JUMPDEST DUP5 PUSH2 0x248C JUMP JUMPDEST PUSH1 0x20 PUSH1 0x1F DUP3 GT PUSH1 0x1 EQ PUSH2 0x4D9 JUMPI SWAP1 DUP1 PUSH2 0x4A0 SWAP3 PUSH1 0x4 SWAP7 SWAP8 PUSH1 0x0 SWAP3 PUSH2 0x4CE JUMPI POP POP DUP2 PUSH1 0x1 SHL SWAP2 PUSH1 0x0 NOT SWAP1 PUSH1 0x3 SHL SHR NOT AND OR SWAP1 JUMP JUMPDEST SWAP1 SSTORE JUMPDEST ADD SWAP1 PUSH1 0x80 PUSH1 0x1 DUP1 PUSH1 0xA0 SHL SUB SWAP2 ADD MLOAD AND PUSH1 0x1 PUSH1 0x1 PUSH1 0x60 SHL SUB PUSH1 0xA0 SHL DUP3 SLOAD AND OR SWAP1 SSTORE PUSH2 0x1AA PUSH1 0xA4 CALLDATALOAD PUSH2 0x2789 JUMP JUMPDEST ADD MLOAD SWAP1 POP DUP8 DUP1 PUSH2 0x35F JUMP JUMPDEST PUSH1 0x1F NOT DUP3 AND SWAP6 DUP4 PUSH1 0x0 MSTORE PUSH1 0x20 PUSH1 0x0 KECCAK256 SWAP7 PUSH1 0x0 JUMPDEST DUP2 DUP2 LT PUSH2 0x52B JUMPI POP SWAP2 PUSH1 0x4 SWAP7 SWAP8 SWAP2 DUP5 PUSH1 0x1 SWAP6 SWAP5 LT PUSH2 0x512 JUMPI JUMPDEST POP POP POP DUP2 SHL ADD SWAP1 SSTORE PUSH2 0x4A3 JUMP JUMPDEST ADD MLOAD PUSH1 0x0 NOT PUSH1 0xF8 DUP5 PUSH1 0x3 SHL AND SHR NOT AND SWAP1 SSTORE DUP7 DUP1 DUP1 PUSH2 0x505 JUMP JUMPDEST DUP4 DUP4 ADD MLOAD DUP10 SSTORE PUSH1 0x1 SWAP1 SWAP9 ADD SWAP8 PUSH1 0x20 SWAP4 DUP5 ADD SWAP4 ADD PUSH2 0x4EC JUMP JUMPDEST PUSH4 0x4E487B71 PUSH1 0xE0 SHL PUSH1 0x0 MSTORE PUSH1 0x41 PUSH1 0x4 MSTORE PUSH1 0x24 PUSH1 0x0 REVERT JUMPDEST ADD MLOAD SWAP1 POP DUP6 DUP1 PUSH2 0x35F JUMP JUMPDEST PUSH1 0x2 DUP5 ADD PUSH1 0x0 MSTORE PUSH1 0x20 PUSH1 0x0 KECCAK256 SWAP1 PUSH1 0x0 JUMPDEST PUSH1 0x1F NOT DUP5 AND DUP2 LT PUSH2 0x5BA JUMPI POP PUSH1 0x1 SWAP4 SWAP5 SWAP6 DUP4 PUSH1 0x1F NOT DUP2 AND LT PUSH2 0x5A1 JUMPI JUMPDEST POP POP POP DUP2 SHL ADD PUSH1 0x2 DUP4 ADD SSTORE PUSH2 0x43E JUMP JUMPDEST ADD MLOAD PUSH1 0x0 NOT PUSH1 0xF8 DUP5 PUSH1 0x3 SHL AND SHR NOT AND SWAP1 SSTORE DUP5 DUP1 DUP1 PUSH2 0x591 JUMP JUMPDEST SWAP1 SWAP2 PUSH1 0x20 PUSH1 0x1 DUP2 SWAP3 DUP6 DUP11 ADD MLOAD DUP2 SSTORE ADD SWAP4 ADD SWAP2 ADD PUSH2 0x574 JUMP JUMPDEST ADD MLOAD SWAP1 POP DUP7 DUP1 PUSH2 0x35F JUMP JUMPDEST PUSH1 0x1 DUP5 ADD PUSH1 0x0 MSTORE PUSH1 0x20 PUSH1 0x0 KECCAK256 SWAP1 PUSH1 0x0 JUMPDEST PUSH1 0x1F NOT DUP5 AND DUP2 LT PUSH2 0x634 JUMPI POP PUSH1 0x1 SWAP4 SWAP5 SWAP6 SWAP7 DUP4 PUSH1 0x1F NOT DUP2 AND LT PUSH2 0x61B JUMPI JUMPDEST POP POP POP DUP2 SHL ADD PUSH1 0x1 DUP4 ADD SSTORE PUSH2 0x3DB JUMP JUMPDEST ADD MLOAD PUSH1 0x0 NOT PUSH1 0xF8 DUP5 PUSH1 0x3 SHL AND SHR NOT AND SWAP1 SSTORE DUP6 DUP1 DUP1 PUSH2 0x60B JUMP JUMPDEST SWAP1 SWAP2 PUSH1 0x20 PUSH1 0x1 DUP2 SWAP3 DUP6 DUP12 ADD MLOAD DUP2 SSTORE ADD SWAP4 ADD SWAP2 ADD PUSH2 0x5ED JUMP JUMPDEST SWAP1 PUSH1 0x1F NOT DUP4 AND SWAP2 DUP6 PUSH1 0x0 MSTORE PUSH1 0x20 PUSH1 0x0 KECCAK256 SWAP3 PUSH1 0x0 JUMPDEST DUP2 DUP2 LT PUSH2 0x69C JUMPI POP SWAP1 DUP5 PUSH1 0x1 SWAP6 SWAP5 SWAP4 SWAP3 LT PUSH2 0x683 JUMPI JUMPDEST POP POP POP DUP2 SHL ADD DUP3 SSTORE PUSH2 0x377 JUMP JUMPDEST ADD MLOAD PUSH1 0x0 NOT PUSH1 0xF8 DUP5 PUSH1 0x3 SHL AND SHR NOT AND SWAP1 SSTORE DUP7 DUP1 DUP1 PUSH2 0x676 JUMP JUMPDEST SWAP3 SWAP4 PUSH1 0x20 PUSH1 0x1 DUP2 SWAP3 DUP8 DUP7 ADD MLOAD DUP2 SSTORE ADD SWAP6 ADD SWAP4 ADD PUSH2 0x660 JUMP JUMPDEST CALLVALUE PUSH2 0x166 JUMPI PUSH1 0x20 DUP1 PUSH1 0x3 NOT CALLDATASIZE ADD SLT PUSH2 0x166 JUMPI PUSH2 0x6CE PUSH2 0x230E JUMP JUMPDEST PUSH1 0x0 DUP1 MLOAD PUSH1 0x20 PUSH2 0x2AE3 DUP4 CODECOPY DUP2 MLOAD SWAP2 MSTORE PUSH1 0x0 MSTORE PUSH1 0x0 DUP3 MSTORE PUSH1 0x40 PUSH1 0x0 KECCAK256 CALLER PUSH1 0x0 MSTORE DUP3 MSTORE PUSH1 0xFF PUSH1 0x40 PUSH1 0x0 KECCAK256 SLOAD AND DUP1 ISZERO PUSH2 0x8A2 JUMPI JUMPDEST DUP1 ISZERO PUSH2 0x884 JUMPI JUMPDEST PUSH2 0x70F SWAP1 PUSH2 0x2391 JUMP JUMPDEST PUSH1 0x1 PUSH1 0x1 PUSH1 0xA0 SHL SUB AND DUP1 ISZERO PUSH2 0x84D JUMPI DUP1 CALLER EQ DUP1 ISZERO PUSH2 0x81D JUMPI JUMPDEST DUP1 ISZERO PUSH2 0x7FB JUMPI JUMPDEST ISZERO PUSH2 0x7C5 JUMPI PUSH1 0x0 MSTORE PUSH1 0x3 DUP2 MSTORE PUSH1 0x40 PUSH1 0x0 KECCAK256 PUSH1 0x40 MLOAD SWAP1 DUP2 DUP4 DUP3 SLOAD SWAP2 DUP3 DUP2 MSTORE ADD SWAP1 DUP2 SWAP3 PUSH1 0x0 MSTORE DUP5 PUSH1 0x0 KECCAK256 SWAP1 PUSH1 0x0 JUMPDEST DUP7 DUP3 DUP3 LT PUSH2 0x7B1 JUMPI DUP7 DUP7 PUSH2 0x771 DUP3 DUP9 SUB DUP4 PUSH2 0x23EB JUMP JUMPDEST PUSH1 0x40 MLOAD SWAP3 DUP4 SWAP3 DUP2 DUP5 ADD SWAP1 DUP3 DUP6 MSTORE MLOAD DUP1 SWAP2 MSTORE PUSH1 0x40 DUP5 ADD SWAP3 SWAP2 PUSH1 0x0 JUMPDEST DUP3 DUP2 LT PUSH2 0x79A JUMPI POP POP POP POP SUB SWAP1 RETURN JUMPDEST DUP4 MLOAD DUP6 MSTORE DUP7 SWAP6 POP SWAP4 DUP2 ADD SWAP4 SWAP3 DUP2 ADD SWAP3 PUSH1 0x1 ADD PUSH2 0x78B JUMP JUMPDEST DUP4 SLOAD DUP6 MSTORE SWAP1 SWAP4 ADD SWAP3 PUSH1 0x1 SWAP3 DUP4 ADD SWAP3 ADD PUSH2 0x75B JUMP JUMPDEST PUSH1 0x40 MLOAD PUSH3 0x461BCD PUSH1 0xE5 SHL DUP2 MSTORE PUSH1 0x4 DUP2 ADD DUP4 SWAP1 MSTORE PUSH1 0xE PUSH1 0x24 DUP3 ADD MSTORE PUSH14 0x1B9BDD08185D5D1A1BDC9A5E9959 PUSH1 0x92 SHL PUSH1 0x44 DUP3 ADD MSTORE PUSH1 0x64 SWAP1 REVERT JUMPDEST POP PUSH1 0x0 DUP1 MSTORE PUSH1 0x0 DUP3 MSTORE PUSH1 0x40 PUSH1 0x0 KECCAK256 CALLER PUSH1 0x0 MSTORE DUP3 MSTORE PUSH1 0xFF PUSH1 0x40 PUSH1 0x0 KECCAK256 SLOAD AND PUSH2 0x72F JUMP JUMPDEST POP PUSH1 0x0 DUP1 MLOAD PUSH1 0x20 PUSH2 0x2B03 DUP4 CODECOPY DUP2 MLOAD SWAP2 MSTORE PUSH1 0x0 MSTORE PUSH1 0x0 DUP3 MSTORE PUSH1 0x40 PUSH1 0x0 KECCAK256 CALLER PUSH1 0x0 MSTORE DUP3 MSTORE PUSH1 0xFF PUSH1 0x40 PUSH1 0x0 KECCAK256 SLOAD AND PUSH2 0x728 JUMP JUMPDEST PUSH1 0x40 MLOAD PUSH3 0x461BCD PUSH1 0xE5 SHL DUP2 MSTORE PUSH1 0x4 DUP2 ADD DUP4 SWAP1 MSTORE PUSH1 0xF PUSH1 0x24 DUP3 ADD MSTORE PUSH15 0x191BD8DD1BDC881C995C5D5A5C9959 PUSH1 0x8A SHL PUSH1 0x44 DUP3 ADD MSTORE PUSH1 0x64 SWAP1 REVERT JUMPDEST POP PUSH1 0x0 DUP1 DUP1 MSTORE DUP1 DUP4 MSTORE PUSH1 0x40 DUP1 DUP3 KECCAK256 CALLER DUP4 MSTORE DUP5 MSTORE SWAP1 KECCAK256 SLOAD PUSH1 0xFF AND PUSH2 0x706 JUMP JUMPDEST POP PUSH1 0x0 DUP1 MLOAD PUSH1 0x20 PUSH2 0x2B03 DUP4 CODECOPY DUP2 MLOAD SWAP2 MSTORE PUSH1 0x0 MSTORE PUSH1 0x0 DUP3 MSTORE PUSH1 0x40 PUSH1 0x0 KECCAK256 CALLER PUSH1 0x0 MSTORE DUP3 MSTORE PUSH1 0xFF PUSH1 0x40 PUSH1 0x0 KECCAK256 SLOAD AND PUSH2 0x6FF JUMP JUMPDEST CALLVALUE PUSH2 0x166 JUMPI PUSH1 0x0 CALLDATASIZE PUSH1 0x3 NOT ADD SLT PUSH2 0x166 JUMPI PUSH1 0x20 PUSH1 0x40 MLOAD PUSH32 0x72606200FAC42B7DC86B75901D61ECFAB2A4A1A6EDED478B97A428094891ABED DUP2 MSTORE RETURN JUMPDEST CALLVALUE PUSH2 0x166 JUMPI PUSH1 0x0 CALLDATASIZE PUSH1 0x3 NOT ADD SLT PUSH2 0x166 JUMPI PUSH1 0x20 PUSH1 0x40 MLOAD PUSH1 0x0 DUP2 MSTORE RETURN JUMPDEST CALLVALUE PUSH2 0x166 JUMPI PUSH1 0x20 CALLDATASIZE PUSH1 0x3 NOT ADD SLT PUSH2 0x166 JUMPI PUSH2 0x1AA PUSH2 0x945 PUSH2 0x230E JUMP JUMPDEST CALLER PUSH1 0x0 SWAP1 DUP2 MSTORE PUSH32 0x7D7FFB7A348E1C6A02869081A26547B49160DD3DF72D1D75A570EB9B698292EC PUSH1 0x20 MSTORE PUSH1 0x40 SWAP1 KECCAK256 SLOAD PUSH1 0xFF AND DUP1 ISZERO PUSH2 0x98C JUMPI JUMPDEST PUSH2 0x987 SWAP1 PUSH2 0x261E JUMP JUMPDEST PUSH2 0x29B4 JUMP JUMPDEST POP CALLER PUSH1 0x0 SWAP1 DUP2 MSTORE PUSH32 0xAD3228B676F7D3CD4284A5443F17F1962B36E491B30A40B2405849E597BA5FB5 PUSH1 0x20 MSTORE PUSH1 0x40 SWAP1 KECCAK256 SLOAD PUSH1 0xFF AND PUSH2 0x97E JUMP JUMPDEST CALLVALUE PUSH2 0x166 JUMPI PUSH1 0x40 CALLDATASIZE PUSH1 0x3 NOT ADD SLT PUSH2 0x166 JUMPI PUSH2 0x9DD PUSH2 0x22F8 JUMP JUMPDEST PUSH1 0x4 CALLDATALOAD PUSH1 0x0 MSTORE PUSH1 0x0 PUSH1 0x20 MSTORE PUSH1 0x40 PUSH1 0x0 KECCAK256 SWAP1 PUSH1 0x1 DUP1 PUSH1 0xA0 SHL SUB AND PUSH1 0x0 MSTORE PUSH1 0x20 MSTORE PUSH1 0x20 PUSH1 0xFF PUSH1 0x40 PUSH1 0x0 KECCAK256 SLOAD AND PUSH1 0x40 MLOAD SWAP1 ISZERO ISZERO DUP2 MSTORE RETURN JUMPDEST CALLVALUE PUSH2 0x166 JUMPI PUSH1 0xA0 CALLDATASIZE PUSH1 0x3 NOT ADD SLT PUSH2 0x166 JUMPI PUSH1 0x4 CALLDATALOAD PUSH1 0x1 PUSH1 0x1 PUSH1 0x40 SHL SUB DUP2 GT PUSH2 0x166 JUMPI PUSH2 0xA41 SWAP1 CALLDATASIZE SWAP1 PUSH1 0x4 ADD PUSH2 0x2324 JUMP JUMPDEST PUSH1 0x24 CALLDATALOAD PUSH1 0x1 PUSH1 0x1 PUSH1 0x40 SHL SUB DUP2 GT PUSH2 0x166 JUMPI PUSH2 0xA60 SWAP1 CALLDATASIZE SWAP1 PUSH1 0x4 ADD PUSH2 0x2324 JUMP JUMPDEST SWAP2 SWAP1 PUSH1 0x44 CALLDATALOAD PUSH1 0x1 PUSH1 0x1 PUSH1 0x40 SHL SUB DUP2 GT PUSH2 0x166 JUMPI PUSH2 0xA81 SWAP1 CALLDATASIZE SWAP1 PUSH1 0x4 ADD PUSH2 0x2324 JUMP JUMPDEST SWAP5 SWAP1 SWAP2 PUSH1 0x84 CALLDATALOAD PUSH1 0x1 PUSH1 0x1 PUSH1 0xA0 SHL SUB DUP2 AND SWAP1 SUB PUSH2 0x166 JUMPI PUSH1 0x64 CALLDATALOAD PUSH1 0x0 SWAP1 DUP2 MSTORE PUSH1 0x6 PUSH1 0x20 MSTORE PUSH1 0x40 SWAP1 KECCAK256 PUSH1 0x3 ADD SLOAD PUSH2 0xABF SWAP1 PUSH1 0x1 PUSH1 0x1 PUSH1 0xA0 SHL SUB AND ISZERO PUSH2 0x2656 JUMP JUMPDEST PUSH1 0x40 MLOAD SWAP5 DUP6 PUSH1 0x80 DUP2 ADD LT PUSH1 0x1 PUSH1 0x1 PUSH1 0x40 SHL SUB PUSH1 0x80 DUP9 ADD GT OR PUSH2 0x543 JUMPI PUSH2 0xAF4 PUSH2 0xAFD SWAP4 PUSH2 0xB0C SWAP7 PUSH1 0x80 DUP10 ADD PUSH1 0x40 MSTORE CALLDATASIZE SWAP2 PUSH2 0x240C JUMP JUMPDEST DUP7 MSTORE CALLDATASIZE SWAP2 PUSH2 0x240C JUMP JUMPDEST SWAP4 PUSH1 0x20 DUP5 ADD SWAP5 DUP6 MSTORE CALLDATASIZE SWAP2 PUSH2 0x240C JUMP JUMPDEST SWAP1 PUSH1 0x40 DUP2 ADD SWAP2 DUP3 MSTORE PUSH1 0x60 DUP2 ADD SWAP2 PUSH1 0x1 DUP1 PUSH1 0xA0 SHL SUB PUSH1 0x84 CALLDATALOAD AND DUP4 MSTORE PUSH1 0x64 CALLDATALOAD PUSH1 0x0 MSTORE PUSH1 0x6 PUSH1 0x20 MSTORE PUSH1 0x40 PUSH1 0x0 KECCAK256 SWAP2 MLOAD DUP1 MLOAD SWAP1 PUSH1 0x1 PUSH1 0x1 PUSH1 0x40 SHL SUB DUP3 GT PUSH2 0x543 JUMPI PUSH2 0xB57 DUP3 PUSH2 0x33D DUP7 SLOAD PUSH2 0x2452 JUMP JUMPDEST PUSH1 0x20 SWAP1 PUSH1 0x1F DUP4 GT PUSH1 0x1 EQ PUSH2 0xD42 JUMPI PUSH2 0xB87 SWAP3 SWAP2 PUSH1 0x0 SWAP2 DUP4 PUSH2 0x4CE JUMPI POP POP DUP2 PUSH1 0x1 SHL SWAP2 PUSH1 0x0 NOT SWAP1 PUSH1 0x3 SHL SHR NOT AND OR SWAP1 JUMP JUMPDEST DUP3 SSTORE JUMPDEST PUSH1 0x1 SWAP4 DUP5 DUP4 ADD SWAP1 MLOAD DUP1 MLOAD SWAP1 PUSH1 0x1 PUSH1 0x1 PUSH1 0x40 SHL SUB DUP3 GT PUSH2 0x543 JUMPI PUSH2 0xBB7 DUP3 PUSH2 0xBB1 DUP6 SLOAD PUSH2 0x2452 JUMP JUMPDEST DUP6 PUSH2 0x248C JUMP JUMPDEST PUSH1 0x20 SWAP1 PUSH1 0x1F DUP4 GT PUSH1 0x1 EQ PUSH2 0xCDF JUMPI PUSH2 0xBE7 SWAP3 SWAP2 PUSH1 0x0 SWAP2 DUP4 PUSH2 0xCD4 JUMPI POP POP DUP2 PUSH1 0x1 SHL SWAP2 PUSH1 0x0 NOT SWAP1 PUSH1 0x3 SHL SHR NOT AND OR SWAP1 JUMP JUMPDEST SWAP1 SSTORE JUMPDEST PUSH1 0x2 DUP3 ADD SWAP1 MLOAD SWAP4 DUP5 MLOAD SWAP1 PUSH1 0x1 PUSH1 0x1 PUSH1 0x40 SHL SUB DUP3 GT PUSH2 0x543 JUMPI PUSH2 0xC10 DUP3 PUSH2 0xBB1 DUP6 SLOAD PUSH2 0x2452 JUMP JUMPDEST PUSH1 0x20 SWAP1 PUSH1 0x1F DUP4 GT PUSH1 0x1 EQ PUSH2 0xC70 JUMPI POP SWAP1 DUP1 PUSH2 0xC45 SWAP3 PUSH1 0x3 SWAP7 SWAP8 PUSH1 0x0 SWAP3 PUSH2 0x4CE JUMPI POP POP DUP2 PUSH1 0x1 SHL SWAP2 PUSH1 0x0 NOT SWAP1 PUSH1 0x3 SHL SHR NOT AND OR SWAP1 JUMP JUMPDEST SWAP1 SSTORE JUMPDEST ADD SWAP1 PUSH1 0x1 DUP1 PUSH1 0xA0 SHL SUB SWAP1 MLOAD AND PUSH1 0x1 PUSH1 0x1 PUSH1 0x60 SHL SUB PUSH1 0xA0 SHL DUP3 SLOAD AND OR SWAP1 SSTORE PUSH2 0x1AA PUSH1 0x84 CALLDATALOAD PUSH2 0x28B2 JUMP JUMPDEST SWAP2 SWAP1 PUSH1 0x1F NOT DUP3 AND SWAP1 DUP5 PUSH1 0x0 MSTORE PUSH1 0x20 PUSH1 0x0 KECCAK256 SWAP2 PUSH1 0x0 JUMPDEST DUP2 DUP2 LT PUSH2 0xCBE JUMPI POP SWAP8 DUP4 PUSH1 0x3 SWAP9 SWAP10 LT PUSH2 0xCA6 JUMPI JUMPDEST POP POP POP DUP2 SHL ADD SWAP1 SSTORE PUSH2 0xC48 JUMP JUMPDEST ADD MLOAD PUSH1 0x0 NOT DUP4 DUP9 SHL PUSH1 0xF8 AND SHR NOT AND SWAP1 SSTORE DUP7 DUP1 DUP1 PUSH2 0xC99 JUMP JUMPDEST DUP10 DUP4 ADD MLOAD DUP5 SSTORE SWAP3 DUP6 ADD SWAP3 PUSH1 0x20 SWAP3 DUP4 ADD SWAP3 ADD PUSH2 0xC85 JUMP JUMPDEST ADD MLOAD SWAP1 POP DUP9 DUP1 PUSH2 0x35F JUMP JUMPDEST DUP8 SWAP3 SWAP2 PUSH1 0x1F NOT DUP4 AND SWAP2 DUP6 PUSH1 0x0 MSTORE PUSH1 0x20 PUSH1 0x0 KECCAK256 SWAP3 PUSH1 0x0 JUMPDEST DUP2 DUP2 LT PUSH2 0xD2A JUMPI POP DUP5 GT PUSH2 0xD11 JUMPI JUMPDEST POP POP POP DUP2 SHL ADD SWAP1 SSTORE PUSH2 0xBEA JUMP JUMPDEST ADD MLOAD PUSH1 0x0 NOT PUSH1 0xF8 DUP5 PUSH1 0x3 SHL AND SHR NOT AND SWAP1 SSTORE DUP8 DUP1 DUP1 PUSH2 0xD04 JUMP JUMPDEST DUP3 DUP5 ADD MLOAD DUP6 SSTORE DUP12 SWAP7 SWAP1 SWAP5 ADD SWAP4 PUSH1 0x20 SWAP4 DUP5 ADD SWAP4 ADD PUSH2 0xCF5 JUMP JUMPDEST SWAP1 PUSH1 0x1F NOT DUP4 AND SWAP2 DUP6 PUSH1 0x0 MSTORE PUSH1 0x20 PUSH1 0x0 KECCAK256 SWAP3 PUSH1 0x0 JUMPDEST DUP2 DUP2 LT PUSH2 0xD92 JUMPI POP SWAP1 DUP5 PUSH1 0x1 SWAP6 SWAP5 SWAP4 SWAP3 LT PUSH2 0xD79 JUMPI JUMPDEST POP POP POP DUP2 SHL ADD DUP3 SSTORE PUSH2 0xB8A JUMP JUMPDEST ADD MLOAD PUSH1 0x0 NOT PUSH1 0xF8 DUP5 PUSH1 0x3 SHL AND SHR NOT AND SWAP1 SSTORE DUP7 DUP1 DUP1 PUSH2 0xD6C JUMP JUMPDEST SWAP3 SWAP4 PUSH1 0x20 PUSH1 0x1 DUP2 SWAP3 DUP8 DUP7 ADD MLOAD DUP2 SSTORE ADD SWAP6 ADD SWAP4 ADD PUSH2 0xD56 JUMP JUMPDEST CALLVALUE PUSH2 0x166 JUMPI PUSH1 0x40 CALLDATASIZE PUSH1 0x3 NOT ADD SLT PUSH2 0x166 JUMPI PUSH1 0x4 CALLDATALOAD PUSH2 0xDC6 PUSH2 0x22F8 JUMP JUMPDEST DUP2 PUSH1 0x0 MSTORE PUSH1 0x20 SWAP1 PUSH1 0x1 DUP3 MSTORE PUSH1 0x40 PUSH1 0x0 KECCAK256 PUSH2 0xDE5 PUSH1 0x4 DUP3 ADD SLOAD ISZERO ISZERO PUSH2 0x2503 JUMP JUMPDEST SLOAD PUSH1 0x1 PUSH1 0x1 PUSH1 0xA0 SHL SUB SWAP1 DUP2 AND CALLER EQ DUP1 ISZERO PUSH2 0xE73 JUMPI JUMPDEST DUP1 ISZERO PUSH2 0xE55 JUMPI JUMPDEST PUSH2 0xE0A SWAP1 PUSH2 0x25E0 JUMP JUMPDEST DUP4 PUSH1 0x0 MSTORE PUSH1 0x2 DUP4 MSTORE PUSH1 0x40 PUSH1 0x0 KECCAK256 SWAP2 AND SWAP2 DUP3 PUSH1 0x0 MSTORE MSTORE PUSH1 0x40 PUSH1 0x0 KECCAK256 PUSH1 0xFF NOT DUP2 SLOAD AND SWAP1 SSTORE CALLER SWAP2 PUSH32 0xFAB19BDEACF1EA13315B1DA3F79A3403FE4F16793B6A03EEFF9E0BBBEA24FE5F PUSH1 0x0 DUP1 LOG4 STOP JUMPDEST POP PUSH1 0x0 DUP1 DUP1 MSTORE DUP1 DUP5 MSTORE PUSH1 0x40 DUP1 DUP3 KECCAK256 CALLER DUP4 MSTORE DUP6 MSTORE SWAP1 KECCAK256 SLOAD PUSH1 0xFF AND PUSH2 0xE01 JUMP JUMPDEST POP PUSH1 0x0 DUP1 MLOAD PUSH1 0x20 PUSH2 0x2B03 DUP4 CODECOPY DUP2 MLOAD SWAP2 MSTORE PUSH1 0x0 MSTORE PUSH1 0x0 DUP4 MSTORE PUSH1 0x40 PUSH1 0x0 KECCAK256 CALLER PUSH1 0x0 MSTORE DUP4 MSTORE PUSH1 0xFF PUSH1 0x40 PUSH1 0x0 KECCAK256 SLOAD AND PUSH2 0xDFA JUMP JUMPDEST CALLVALUE PUSH2 0x166 JUMPI PUSH1 0x40 CALLDATASIZE PUSH1 0x3 NOT ADD SLT PUSH2 0x166 JUMPI PUSH1 0x20 PUSH2 0xEC9 PUSH2 0xEC1 PUSH2 0x22F8 JUMP JUMPDEST PUSH1 0x4 CALLDATALOAD PUSH2 0x26A2 JUMP JUMPDEST PUSH1 0x40 MLOAD SWAP1 ISZERO ISZERO DUP2 MSTORE RETURN JUMPDEST CALLVALUE PUSH2 0x166 JUMPI PUSH1 0x20 CALLDATASIZE PUSH1 0x3 NOT ADD SLT PUSH2 0x166 JUMPI PUSH1 0x4 CALLDATALOAD PUSH1 0x0 MSTORE PUSH1 0x4 PUSH1 0x20 MSTORE PUSH2 0xF67 PUSH1 0x40 PUSH1 0x0 KECCAK256 PUSH1 0x1 DUP2 ADD SLOAD PUSH2 0xFA4 PUSH1 0x1 DUP1 PUSH1 0xA0 SHL SUB PUSH1 0x6 DUP5 ADD SLOAD AND SWAP2 PUSH2 0xF96 PUSH2 0xF19 DUP6 PUSH2 0x253B JUMP JUMPDEST SWAP5 PUSH2 0xF88 PUSH2 0xF29 PUSH1 0x2 DUP4 ADD PUSH2 0x253B JUMP JUMPDEST SWAP4 PUSH2 0xF7A PUSH2 0xF39 PUSH1 0x3 DUP6 ADD PUSH2 0x253B JUMP JUMPDEST SWAP2 PUSH2 0xF52 PUSH1 0x5 PUSH2 0xF4B PUSH1 0x4 DUP9 ADD PUSH2 0x253B JUMP JUMPDEST SWAP7 ADD PUSH2 0x253B JUMP JUMPDEST SWAP7 PUSH1 0x40 MLOAD SWAP12 DUP13 SWAP12 PUSH1 0xE0 DUP14 MSTORE PUSH1 0xE0 DUP14 ADD SWAP1 PUSH2 0x2351 JUMP JUMPDEST SWAP2 PUSH1 0x20 DUP13 ADD MSTORE DUP11 DUP3 SUB PUSH1 0x40 DUP13 ADD MSTORE PUSH2 0x2351 JUMP JUMPDEST SWAP1 DUP9 DUP3 SUB PUSH1 0x60 DUP11 ADD MSTORE PUSH2 0x2351 JUMP JUMPDEST SWAP1 DUP7 DUP3 SUB PUSH1 0x80 DUP9 ADD MSTORE PUSH2 0x2351 JUMP JUMPDEST SWAP1 DUP5 DUP3 SUB PUSH1 0xA0 DUP7 ADD MSTORE PUSH2 0x2351 JUMP JUMPDEST SWAP1 PUSH1 0xC0 DUP4 ADD MSTORE SUB SWAP1 RETURN JUMPDEST CALLVALUE PUSH2 0x166 JUMPI PUSH2 0x100 CALLDATASIZE PUSH1 0x3 NOT ADD SLT PUSH2 0x166 JUMPI PUSH1 0x4 CALLDATALOAD PUSH1 0x1 PUSH1 0x1 PUSH1 0x40 SHL SUB DUP2 GT PUSH2 0x166 JUMPI PUSH2 0xFDF SWAP1 CALLDATASIZE SWAP1 PUSH1 0x4 ADD PUSH2 0x2324 JUMP JUMPDEST PUSH1 0x44 CALLDATALOAD PUSH1 0x1 PUSH1 0x1 PUSH1 0x40 SHL SUB DUP2 GT PUSH2 0x166 JUMPI PUSH2 0xFFE SWAP1 CALLDATASIZE SWAP1 PUSH1 0x4 ADD PUSH2 0x2324 JUMP JUMPDEST SWAP1 SWAP2 PUSH1 0x64 CALLDATALOAD PUSH1 0x1 PUSH1 0x1 PUSH1 0x40 SHL SUB DUP2 GT PUSH2 0x166 JUMPI PUSH2 0x101F SWAP1 CALLDATASIZE SWAP1 PUSH1 0x4 ADD PUSH2 0x2324 JUMP JUMPDEST SWAP3 SWAP1 SWAP2 PUSH1 0x84 CALLDATALOAD PUSH1 0x1 PUSH1 0x1 PUSH1 0x40 SHL SUB DUP2 GT PUSH2 0x166 JUMPI PUSH2 0x1041 SWAP1 CALLDATASIZE SWAP1 PUSH1 0x4 ADD PUSH2 0x2324 JUMP JUMPDEST SWAP1 SWAP2 PUSH1 0xA4 CALLDATALOAD PUSH1 0x1 PUSH1 0x1 PUSH1 0x40 SHL SUB DUP2 GT PUSH2 0x166 JUMPI PUSH2 0x1062 SWAP1 CALLDATASIZE SWAP1 PUSH1 0x4 ADD PUSH2 0x2324 JUMP JUMPDEST SWAP1 SWAP7 SWAP1 SWAP6 SWAP1 PUSH1 0xE4 CALLDATALOAD PUSH1 0x1 PUSH1 0x1 PUSH1 0xA0 SHL SUB DUP2 AND SWAP1 SUB PUSH2 0x166 JUMPI PUSH1 0xC4 CALLDATALOAD PUSH1 0x0 SWAP1 DUP2 MSTORE PUSH1 0x4 PUSH1 0x20 MSTORE PUSH1 0x40 SWAP1 KECCAK256 PUSH1 0x6 ADD SLOAD PUSH2 0x10A2 SWAP1 PUSH1 0x1 PUSH1 0x1 PUSH1 0xA0 SHL SUB AND ISZERO PUSH2 0x2656 JUMP JUMPDEST PUSH1 0x40 MLOAD SWAP10 DUP11 PUSH1 0xE0 DUP2 ADD LT PUSH1 0x1 PUSH1 0x1 PUSH1 0x40 SHL SUB PUSH1 0xE0 DUP14 ADD GT OR PUSH2 0x543 JUMPI PUSH2 0x1114 SWAP10 PUSH2 0x1108 SWAP8 PUSH2 0x10DF PUSH2 0x10F0 SWAP4 PUSH2 0x10FC SWAP8 DUP16 PUSH1 0xE0 ADD PUSH1 0x40 MSTORE CALLDATASIZE SWAP2 PUSH2 0x240C JUMP JUMPDEST DUP14 MSTORE PUSH1 0x24 CALLDATALOAD PUSH1 0x20 DUP15 ADD MSTORE CALLDATASIZE SWAP2 PUSH2 0x240C JUMP JUMPDEST PUSH1 0x40 DUP12 ADD MSTORE CALLDATASIZE SWAP2 PUSH2 0x240C JUMP JUMPDEST PUSH1 0x60 DUP9 ADD MSTORE CALLDATASIZE SWAP2 PUSH2 0x240C JUMP JUMPDEST PUSH1 0x80 DUP6 ADD MSTORE CALLDATASIZE SWAP2 PUSH2 0x240C JUMP JUMPDEST PUSH1 0xA0 DUP3 ADD MSTORE PUSH1 0x1 DUP1 PUSH1 0xA0 SHL SUB PUSH1 0xE4 CALLDATALOAD AND PUSH1 0xC0 DUP3 ADD MSTORE PUSH1 0xC4 CALLDATALOAD PUSH1 0x0 MSTORE PUSH1 0x4 PUSH1 0x20 MSTORE PUSH1 0x40 PUSH1 0x0 KECCAK256 DUP2 MLOAD SWAP2 DUP3 MLOAD PUSH1 0x1 PUSH1 0x1 PUSH1 0x40 SHL SUB DUP2 GT PUSH2 0x543 JUMPI PUSH2 0x115A DUP2 PUSH2 0xBB1 DUP6 SLOAD PUSH2 0x2452 JUMP JUMPDEST PUSH1 0x20 PUSH1 0x1F DUP3 GT PUSH1 0x1 EQ PUSH2 0x14C5 JUMPI DUP2 SWAP1 PUSH2 0x118B SWAP4 SWAP5 SWAP6 PUSH1 0x0 SWAP3 PUSH2 0x559 JUMPI POP POP DUP2 PUSH1 0x1 SHL SWAP2 PUSH1 0x0 NOT SWAP1 PUSH1 0x3 SHL SHR NOT AND OR SWAP1 JUMP JUMPDEST DUP3 SSTORE JUMPDEST PUSH1 0x1 SWAP2 PUSH1 0x20 DUP3 ADD MLOAD DUP4 DUP3 ADD SSTORE PUSH1 0x2 DUP2 ADD PUSH1 0x40 DUP4 ADD MLOAD DUP1 MLOAD SWAP1 PUSH1 0x1 PUSH1 0x1 PUSH1 0x40 SHL SUB DUP3 GT PUSH2 0x543 JUMPI PUSH2 0x11C2 DUP3 PUSH2 0xBB1 DUP6 SLOAD PUSH2 0x2452 JUMP JUMPDEST PUSH1 0x20 SWAP1 PUSH1 0x1F DUP4 GT PUSH1 0x1 EQ PUSH2 0x1462 JUMPI PUSH2 0x11F2 SWAP3 SWAP2 PUSH1 0x0 SWAP2 DUP4 PUSH2 0x4CE JUMPI POP POP DUP2 PUSH1 0x1 SHL SWAP2 PUSH1 0x0 NOT SWAP1 PUSH1 0x3 SHL SHR NOT AND OR SWAP1 JUMP JUMPDEST SWAP1 SSTORE JUMPDEST PUSH1 0x3 DUP2 ADD PUSH1 0x60 DUP4 ADD MLOAD DUP1 MLOAD SWAP1 PUSH1 0x1 PUSH1 0x1 PUSH1 0x40 SHL SUB DUP3 GT PUSH2 0x543 JUMPI PUSH2 0x121D DUP3 PUSH2 0xBB1 DUP6 SLOAD PUSH2 0x2452 JUMP JUMPDEST PUSH1 0x20 SWAP1 PUSH1 0x1F DUP4 GT PUSH1 0x1 EQ PUSH2 0x13FF JUMPI PUSH2 0x124D SWAP3 SWAP2 PUSH1 0x0 SWAP2 DUP4 PUSH2 0x4CE JUMPI POP POP DUP2 PUSH1 0x1 SHL SWAP2 PUSH1 0x0 NOT SWAP1 PUSH1 0x3 SHL SHR NOT AND OR SWAP1 JUMP JUMPDEST SWAP1 SSTORE JUMPDEST PUSH1 0x4 DUP2 ADD PUSH1 0x80 DUP4 ADD MLOAD DUP1 MLOAD SWAP1 PUSH1 0x1 PUSH1 0x1 PUSH1 0x40 SHL SUB DUP3 GT PUSH2 0x543 JUMPI PUSH2 0x1278 DUP3 PUSH2 0xBB1 DUP6 SLOAD PUSH2 0x2452 JUMP JUMPDEST PUSH1 0x20 SWAP1 PUSH1 0x1F DUP4 GT PUSH1 0x1 EQ PUSH2 0x139C JUMPI PUSH2 0x12A8 SWAP3 SWAP2 PUSH1 0x0 SWAP2 DUP4 PUSH2 0x4CE JUMPI POP POP DUP2 PUSH1 0x1 SHL SWAP2 PUSH1 0x0 NOT SWAP1 PUSH1 0x3 SHL SHR NOT AND OR SWAP1 JUMP JUMPDEST SWAP1 SSTORE JUMPDEST PUSH1 0x5 DUP2 ADD PUSH1 0xA0 DUP4 ADD MLOAD SWAP4 DUP5 MLOAD SWAP1 PUSH1 0x1 PUSH1 0x1 PUSH1 0x40 SHL SUB DUP3 GT PUSH2 0x543 JUMPI PUSH2 0x12D4 DUP3 PUSH2 0xBB1 DUP6 SLOAD PUSH2 0x2452 JUMP JUMPDEST PUSH1 0x20 SWAP1 PUSH1 0x1F DUP4 GT PUSH1 0x1 EQ PUSH2 0x1337 JUMPI POP SWAP1 DUP1 PUSH2 0x1309 SWAP3 PUSH1 0x6 SWAP7 SWAP8 PUSH1 0x0 SWAP3 PUSH2 0x4CE JUMPI POP POP DUP2 PUSH1 0x1 SHL SWAP2 PUSH1 0x0 NOT SWAP1 PUSH1 0x3 SHL SHR NOT AND OR SWAP1 JUMP JUMPDEST SWAP1 SSTORE JUMPDEST ADD SWAP1 PUSH1 0xC0 PUSH1 0x1 DUP1 PUSH1 0xA0 SHL SUB SWAP2 ADD MLOAD AND PUSH1 0x1 PUSH1 0x1 PUSH1 0x60 SHL SUB PUSH1 0xA0 SHL DUP3 SLOAD AND OR SWAP1 SSTORE PUSH2 0x1AA PUSH1 0xE4 CALLDATALOAD PUSH2 0x2817 JUMP JUMPDEST SWAP2 SWAP1 PUSH1 0x1F NOT DUP3 AND SWAP1 DUP5 PUSH1 0x0 MSTORE PUSH1 0x20 PUSH1 0x0 KECCAK256 SWAP2 PUSH1 0x0 JUMPDEST DUP2 DUP2 LT PUSH2 0x1386 JUMPI POP SWAP8 DUP4 PUSH1 0x6 SWAP9 SWAP10 LT PUSH2 0x136D JUMPI JUMPDEST POP POP POP DUP2 SHL ADD SWAP1 SSTORE PUSH2 0x130C JUMP JUMPDEST ADD MLOAD PUSH1 0x0 NOT PUSH1 0xF8 DUP5 PUSH1 0x3 SHL AND SHR NOT AND SWAP1 SSTORE DUP7 DUP1 DUP1 PUSH2 0x1360 JUMP JUMPDEST DUP10 DUP4 ADD MLOAD DUP5 SSTORE SWAP3 DUP6 ADD SWAP3 PUSH1 0x20 SWAP3 DUP4 ADD SWAP3 ADD PUSH2 0x134C JUMP JUMPDEST DUP7 SWAP3 SWAP2 PUSH1 0x1F NOT DUP4 AND SWAP2 DUP6 PUSH1 0x0 MSTORE PUSH1 0x20 PUSH1 0x0 KECCAK256 SWAP3 PUSH1 0x0 JUMPDEST DUP2 DUP2 LT PUSH2 0x13E7 JUMPI POP DUP5 GT PUSH2 0x13CE JUMPI JUMPDEST POP POP POP DUP2 SHL ADD SWAP1 SSTORE PUSH2 0x12AB JUMP JUMPDEST ADD MLOAD PUSH1 0x0 NOT PUSH1 0xF8 DUP5 PUSH1 0x3 SHL AND SHR NOT AND SWAP1 SSTORE DUP7 DUP1 DUP1 PUSH2 0x13C1 JUMP JUMPDEST DUP3 DUP5 ADD MLOAD DUP6 SSTORE DUP11 SWAP7 SWAP1 SWAP5 ADD SWAP4 PUSH1 0x20 SWAP4 DUP5 ADD SWAP4 ADD PUSH2 0x13B2 JUMP JUMPDEST DUP7 SWAP3 SWAP2 PUSH1 0x1F NOT DUP4 AND SWAP2 DUP6 PUSH1 0x0 MSTORE PUSH1 0x20 PUSH1 0x0 KECCAK256 SWAP3 PUSH1 0x0 JUMPDEST DUP2 DUP2 LT PUSH2 0x144A JUMPI POP DUP5 GT PUSH2 0x1431 JUMPI JUMPDEST POP POP POP DUP2 SHL ADD SWAP1 SSTORE PUSH2 0x1250 JUMP JUMPDEST ADD MLOAD PUSH1 0x0 NOT PUSH1 0xF8 DUP5 PUSH1 0x3 SHL AND SHR NOT AND SWAP1 SSTORE DUP7 DUP1 DUP1 PUSH2 0x1424 JUMP JUMPDEST DUP3 DUP5 ADD MLOAD DUP6 SSTORE DUP11 SWAP7 SWAP1 SWAP5 ADD SWAP4 PUSH1 0x20 SWAP4 DUP5 ADD SWAP4 ADD PUSH2 0x1415 JUMP JUMPDEST DUP7 SWAP3 SWAP2 PUSH1 0x1F NOT DUP4 AND SWAP2 DUP6 PUSH1 0x0 MSTORE PUSH1 0x20 PUSH1 0x0 KECCAK256 SWAP3 PUSH1 0x0 JUMPDEST DUP2 DUP2 LT PUSH2 0x14AD JUMPI POP DUP5 GT PUSH2 0x1494 JUMPI JUMPDEST POP POP POP DUP2 SHL ADD SWAP1 SSTORE PUSH2 0x11F5 JUMP JUMPDEST ADD MLOAD PUSH1 0x0 NOT PUSH1 0xF8 DUP5 PUSH1 0x3 SHL AND SHR NOT AND SWAP1 SSTORE DUP7 DUP1 DUP1 PUSH2 0x1487 JUMP JUMPDEST DUP3 DUP5 ADD MLOAD DUP6 SSTORE DUP11 SWAP7 SWAP1 SWAP5 ADD SWAP4 PUSH1 0x20 SWAP4 DUP5 ADD SWAP4 ADD PUSH2 0x1478 JUMP JUMPDEST DUP4 PUSH1 0x0 MSTORE PUSH1 0x20 PUSH1 0x0 KECCAK256 SWAP1 PUSH1 0x0 JUMPDEST PUSH1 0x1F NOT DUP5 AND DUP2 LT PUSH2 0x1515 JUMPI POP PUSH1 0x1 SWAP4 SWAP5 SWAP6 DUP4 PUSH1 0x1F NOT DUP2 AND LT PUSH2 0x14FC JUMPI JUMPDEST POP POP POP DUP2 SHL ADD DUP3 SSTORE PUSH2 0x118E JUMP JUMPDEST ADD MLOAD PUSH1 0x0 NOT PUSH1 0xF8 DUP5 PUSH1 0x3 SHL AND SHR NOT AND SWAP1 SSTORE DUP5 DUP1 DUP1 PUSH2 0x14EF JUMP JUMPDEST SWAP1 SWAP2 PUSH1 0x20 PUSH1 0x1 DUP2 SWAP3 DUP6 DUP11 ADD MLOAD DUP2 SSTORE ADD SWAP4 ADD SWAP2 ADD PUSH2 0x14D2 JUMP JUMPDEST CALLVALUE PUSH2 0x166 JUMPI PUSH1 0x0 CALLDATASIZE PUSH1 0x3 NOT ADD SLT PUSH2 0x166 JUMPI PUSH1 0x20 PUSH1 0x40 MLOAD PUSH1 0x0 DUP1 MLOAD PUSH1 0x20 PUSH2 0x2B03 DUP4 CODECOPY DUP2 MLOAD SWAP2 MSTORE DUP2 MSTORE RETURN JUMPDEST CALLVALUE PUSH2 0x166 JUMPI PUSH1 0x20 CALLDATASIZE PUSH1 0x3 NOT ADD SLT PUSH2 0x166 JUMPI PUSH1 0x4 CALLDATALOAD PUSH1 0x0 MSTORE PUSH1 0x5 PUSH1 0x20 MSTORE PUSH2 0x15D4 PUSH1 0x40 PUSH1 0x0 KECCAK256 PUSH1 0x1 DUP1 PUSH1 0xA0 SHL SUB PUSH1 0x4 DUP3 ADD SLOAD AND PUSH2 0x15FE PUSH2 0x1593 DUP4 PUSH2 0x253B JUMP JUMPDEST SWAP3 PUSH2 0x15F0 PUSH2 0x15A3 PUSH1 0x1 DUP4 ADD PUSH2 0x253B JUMP JUMPDEST SWAP2 PUSH2 0x15E2 PUSH2 0x15BF PUSH1 0x3 PUSH2 0x15B8 PUSH1 0x2 DUP6 ADD PUSH2 0x253B JUMP JUMPDEST SWAP4 ADD PUSH2 0x253B JUMP JUMPDEST SWAP4 PUSH1 0x40 MLOAD SWAP9 DUP10 SWAP9 PUSH1 0xA0 DUP11 MSTORE PUSH1 0xA0 DUP11 ADD SWAP1 PUSH2 0x2351 JUMP JUMPDEST SWAP1 DUP9 DUP3 SUB PUSH1 0x20 DUP11 ADD MSTORE PUSH2 0x2351 JUMP JUMPDEST SWAP1 DUP7 DUP3 SUB PUSH1 0x40 DUP9 ADD MSTORE PUSH2 0x2351 JUMP JUMPDEST SWAP1 DUP5 DUP3 SUB PUSH1 0x60 DUP7 ADD MSTORE PUSH2 0x2351 JUMP JUMPDEST SWAP1 PUSH1 0x80 DUP4 ADD MSTORE SUB SWAP1 RETURN JUMPDEST CALLVALUE PUSH2 0x166 JUMPI PUSH1 0x20 CALLDATASIZE PUSH1 0x3 NOT ADD SLT PUSH2 0x166 JUMPI PUSH1 0x4 CALLDATALOAD PUSH1 0x0 MSTORE PUSH1 0x6 PUSH1 0x20 MSTORE PUSH2 0x166F PUSH1 0x40 PUSH1 0x0 KECCAK256 PUSH1 0x1 DUP1 PUSH1 0xA0 SHL SUB PUSH1 0x3 DUP3 ADD SLOAD AND PUSH2 0x168B PUSH2 0x1645 DUP4 PUSH2 0x253B JUMP JUMPDEST SWAP3 PUSH2 0x167D PUSH2 0x165A PUSH1 0x2 PUSH2 0x15B8 PUSH1 0x1 DUP6 ADD PUSH2 0x253B JUMP JUMPDEST SWAP2 PUSH1 0x40 MLOAD SWAP7 DUP8 SWAP7 PUSH1 0x80 DUP9 MSTORE PUSH1 0x80 DUP9 ADD SWAP1 PUSH2 0x2351 JUMP JUMPDEST SWAP1 DUP7 DUP3 SUB PUSH1 0x20 DUP9 ADD MSTORE PUSH2 0x2351 JUMP JUMPDEST SWAP1 DUP5 DUP3 SUB PUSH1 0x40 DUP7 ADD MSTORE PUSH2 0x2351 JUMP JUMPDEST SWAP1 PUSH1 0x60 DUP4 ADD MSTORE SUB SWAP1 RETURN JUMPDEST CALLVALUE PUSH2 0x166 JUMPI PUSH1 0x20 CALLDATASIZE PUSH1 0x3 NOT ADD SLT PUSH2 0x166 JUMPI PUSH2 0x1AA PUSH2 0x16B1 PUSH2 0x230E JUMP JUMPDEST CALLER PUSH1 0x0 SWAP1 DUP2 MSTORE PUSH32 0x7D7FFB7A348E1C6A02869081A26547B49160DD3DF72D1D75A570EB9B698292EC PUSH1 0x20 MSTORE PUSH1 0x40 SWAP1 KECCAK256 SLOAD PUSH1 0xFF AND DUP1 ISZERO PUSH2 0x16F8 JUMPI JUMPDEST PUSH2 0x16F3 SWAP1 PUSH2 0x261E JUMP JUMPDEST PUSH2 0x2789 JUMP JUMPDEST POP CALLER PUSH1 0x0 SWAP1 DUP2 MSTORE PUSH32 0xAD3228B676F7D3CD4284A5443F17F1962B36E491B30A40B2405849E597BA5FB5 PUSH1 0x20 MSTORE PUSH1 0x40 SWAP1 KECCAK256 SLOAD PUSH1 0xFF AND PUSH2 0x16EA JUMP JUMPDEST CALLVALUE PUSH2 0x166 JUMPI PUSH1 0x40 CALLDATASIZE PUSH1 0x3 NOT ADD SLT PUSH2 0x166 JUMPI PUSH1 0x4 CALLDATALOAD PUSH2 0x174C PUSH2 0x22F8 JUMP JUMPDEST DUP2 PUSH1 0x0 MSTORE PUSH1 0x20 PUSH1 0x1 DUP2 MSTORE PUSH1 0x40 PUSH1 0x0 KECCAK256 SWAP2 PUSH2 0x176B PUSH1 0x4 DUP5 ADD SLOAD ISZERO ISZERO PUSH2 0x2503 JUMP JUMPDEST PUSH1 0x1 PUSH1 0x1 PUSH1 0xA0 SHL SUB SWAP1 DUP2 AND SWAP3 DUP4 ISZERO PUSH2 0x18B1 JUMPI SLOAD AND CALLER EQ DUP1 ISZERO PUSH2 0x1881 JUMPI JUMPDEST DUP1 ISZERO PUSH2 0x1863 JUMPI JUMPDEST PUSH2 0x1798 SWAP1 PUSH2 0x25E0 JUMP JUMPDEST PUSH1 0x0 DUP1 MLOAD PUSH1 0x20 PUSH2 0x2AE3 DUP4 CODECOPY DUP2 MLOAD SWAP2 MSTORE PUSH1 0x0 MSTORE PUSH1 0x0 DUP2 MSTORE PUSH1 0x40 PUSH1 0x0 KECCAK256 DUP3 PUSH1 0x0 MSTORE DUP2 MSTORE PUSH1 0xFF PUSH1 0x40 PUSH1 0x0 KECCAK256 SLOAD AND PUSH2 0x1813 JUMPI JUMPDEST DUP3 PUSH1 0x0 MSTORE PUSH1 0x2 DUP2 MSTORE PUSH1 0x40 PUSH1 0x0 KECCAK256 SWAP1 DUP3 PUSH1 0x0 MSTORE MSTORE PUSH1 0x40 PUSH1 0x0 KECCAK256 PUSH1 0x1 PUSH1 0xFF NOT DUP3 SLOAD AND OR SWAP1 SSTORE CALLER SWAP2 PUSH32 0x7AEFFE35F64B55A7C424C5FCCC3FBA0F3AC4EBD764CC737855B8734834458F2B PUSH1 0x0 DUP1 LOG4 STOP JUMPDEST PUSH1 0x3 DUP2 MSTORE PUSH1 0x40 PUSH1 0x0 KECCAK256 DUP1 SLOAD PUSH9 0x10000000000000000 DUP2 LT ISZERO PUSH2 0x543 JUMPI PUSH1 0x1 DUP2 ADD DUP1 DUP4 SSTORE DUP2 LT ISZERO PUSH2 0x184D JUMPI DUP5 SWAP2 PUSH1 0x0 MSTORE DUP3 PUSH1 0x0 KECCAK256 ADD SSTORE PUSH2 0x17C7 JUMP JUMPDEST PUSH4 0x4E487B71 PUSH1 0xE0 SHL PUSH1 0x0 MSTORE PUSH1 0x32 PUSH1 0x4 MSTORE PUSH1 0x24 PUSH1 0x0 REVERT JUMPDEST POP PUSH1 0x0 DUP1 DUP1 MSTORE DUP1 DUP3 MSTORE PUSH1 0x40 DUP1 DUP3 KECCAK256 CALLER DUP4 MSTORE DUP4 MSTORE SWAP1 KECCAK256 SLOAD PUSH1 0xFF AND PUSH2 0x178F JUMP JUMPDEST POP PUSH1 0x0 DUP1 MLOAD PUSH1 0x20 PUSH2 0x2B03 DUP4 CODECOPY DUP2 MLOAD SWAP2 MSTORE PUSH1 0x0 MSTORE PUSH1 0x0 DUP2 MSTORE PUSH1 0x40 PUSH1 0x0 KECCAK256 CALLER PUSH1 0x0 MSTORE DUP2 MSTORE PUSH1 0xFF PUSH1 0x40 PUSH1 0x0 KECCAK256 SLOAD AND PUSH2 0x1788 JUMP JUMPDEST PUSH1 0x40 MLOAD PUSH3 0x461BCD PUSH1 0xE5 SHL DUP2 MSTORE PUSH1 0x4 DUP2 ADD DUP5 SWAP1 MSTORE PUSH1 0xB PUSH1 0x24 DUP3 ADD MSTORE PUSH11 0x626164206772616E746565 PUSH1 0xA8 SHL PUSH1 0x44 DUP3 ADD MSTORE PUSH1 0x64 SWAP1 REVERT JUMPDEST CALLVALUE PUSH2 0x166 JUMPI PUSH1 0x40 CALLDATASIZE PUSH1 0x3 NOT ADD SLT PUSH2 0x166 JUMPI PUSH2 0x18FD PUSH2 0x22F8 JUMP JUMPDEST CALLER PUSH1 0x1 PUSH1 0x1 PUSH1 0xA0 SHL SUB DUP3 AND SUB PUSH2 0x1919 JUMPI PUSH2 0x1AA SWAP1 PUSH1 0x4 CALLDATALOAD PUSH2 0x2A4D JUMP JUMPDEST PUSH1 0x40 MLOAD PUSH4 0x334BD919 PUSH1 0xE1 SHL DUP2 MSTORE PUSH1 0x4 SWAP1 REVERT JUMPDEST CALLVALUE PUSH2 0x166 JUMPI PUSH1 0x40 CALLDATASIZE PUSH1 0x3 NOT ADD SLT PUSH2 0x166 JUMPI PUSH2 0x1AA PUSH1 0x4 CALLDATALOAD PUSH2 0x194A PUSH2 0x22F8 JUMP JUMPDEST SWAP1 DUP1 PUSH1 0x0 MSTORE PUSH1 0x0 PUSH1 0x20 MSTORE PUSH2 0x1965 PUSH1 0x1 PUSH1 0x40 PUSH1 0x0 KECCAK256 ADD SLOAD PUSH2 0x2745 JUMP JUMPDEST PUSH2 0x294D JUMP JUMPDEST CALLVALUE PUSH2 0x166 JUMPI PUSH1 0x20 CALLDATASIZE PUSH1 0x3 NOT ADD SLT PUSH2 0x166 JUMPI PUSH1 0x4 CALLDATALOAD PUSH1 0x0 MSTORE PUSH1 0x0 PUSH1 0x20 MSTORE PUSH1 0x20 PUSH1 0x1 PUSH1 0x40 PUSH1 0x0 KECCAK256 ADD SLOAD PUSH1 0x40 MLOAD SWAP1 DUP2 MSTORE RETURN JUMPDEST CALLVALUE PUSH2 0x166 JUMPI PUSH1 0x20 DUP1 PUSH1 0x3 NOT CALLDATASIZE ADD SLT PUSH2 0x166 JUMPI PUSH1 0x4 CALLDATALOAD DUP1 PUSH1 0x0 MSTORE PUSH1 0x1 DUP3 MSTORE PUSH1 0x40 PUSH1 0x0 KECCAK256 SWAP1 PUSH1 0x4 DUP3 ADD SLOAD SWAP1 PUSH2 0x19CD DUP3 ISZERO ISZERO PUSH2 0x2503 JUMP JUMPDEST PUSH1 0x0 DUP1 MLOAD PUSH1 0x20 PUSH2 0x2B03 DUP4 CODECOPY DUP2 MLOAD SWAP2 MSTORE PUSH1 0x0 MSTORE PUSH1 0x0 DUP5 MSTORE PUSH1 0x40 PUSH1 0x0 KECCAK256 CALLER PUSH1 0x0 MSTORE DUP5 MSTORE PUSH1 0xFF PUSH1 0x40 PUSH1 0x0 KECCAK256 SLOAD AND SWAP1 DUP2 ISZERO PUSH2 0x1ACA JUMPI JUMPDEST DUP2 ISZERO PUSH2 0x1AB6 JUMPI JUMPDEST DUP2 ISZERO PUSH2 0x1A93 JUMPI JUMPDEST POP ISZERO PUSH2 0x1A62 JUMPI PUSH2 0x15FE PUSH1 0x1 DUP1 PUSH1 0xA0 SHL SUB SWAP3 PUSH2 0x15F0 DUP5 DUP3 SLOAD AND SWAP5 PUSH1 0x1 DUP4 ADD SLOAD AND SWAP2 PUSH2 0x1A45 PUSH1 0x3 PUSH2 0x1A3E PUSH1 0x2 DUP5 ADD PUSH2 0x253B JUMP JUMPDEST SWAP3 ADD PUSH2 0x253B JUMP JUMPDEST SWAP3 PUSH1 0x40 MLOAD SWAP8 DUP9 SWAP8 DUP9 MSTORE DUP8 ADD MSTORE PUSH1 0xA0 PUSH1 0x40 DUP8 ADD MSTORE PUSH1 0xA0 DUP7 ADD SWAP1 PUSH2 0x2351 JUMP JUMPDEST PUSH1 0x40 MLOAD PUSH3 0x461BCD PUSH1 0xE5 SHL DUP2 MSTORE PUSH1 0x4 DUP2 ADD DUP5 SWAP1 MSTORE PUSH1 0x9 PUSH1 0x24 DUP3 ADD MSTORE PUSH9 0x6E6F20616363657373 PUSH1 0xB8 SHL PUSH1 0x44 DUP3 ADD MSTORE PUSH1 0x64 SWAP1 REVERT JUMPDEST SWAP1 POP PUSH1 0x0 MSTORE PUSH1 0x2 DUP4 MSTORE PUSH1 0x40 PUSH1 0x0 KECCAK256 CALLER PUSH1 0x0 MSTORE DUP4 MSTORE PUSH1 0xFF PUSH1 0x40 PUSH1 0x0 KECCAK256 SLOAD AND DUP5 PUSH2 0x1A0D JUMP JUMPDEST DUP4 SLOAD PUSH1 0x1 PUSH1 0x1 PUSH1 0xA0 SHL SUB AND CALLER EQ SWAP2 POP PUSH2 0x1A06 JUMP JUMPDEST SWAP1 POP PUSH1 0x0 DUP1 MSTORE PUSH1 0x0 DUP5 MSTORE PUSH1 0x40 PUSH1 0x0 KECCAK256 CALLER PUSH1 0x0 MSTORE DUP5 MSTORE PUSH1 0xFF PUSH1 0x40 PUSH1 0x0 KECCAK256 SLOAD AND SWAP1 PUSH2 0x19FF JUMP JUMPDEST CALLVALUE PUSH2 0x166 JUMPI PUSH1 0x60 CALLDATASIZE PUSH1 0x3 NOT ADD SLT PUSH2 0x166 JUMPI PUSH1 0x1 PUSH1 0x1 PUSH1 0x40 SHL SUB PUSH1 0x4 CALLDATALOAD PUSH1 0x24 CALLDATALOAD DUP3 DUP2 GT PUSH2 0x166 JUMPI PUSH2 0x1B22 SWAP1 CALLDATASIZE SWAP1 PUSH1 0x4 ADD PUSH2 0x2324 JUMP JUMPDEST PUSH1 0x44 CALLDATALOAD DUP5 DUP2 GT PUSH2 0x166 JUMPI PUSH2 0x1B3A SWAP1 CALLDATASIZE SWAP1 PUSH1 0x4 ADD PUSH2 0x2324 JUMP JUMPDEST DUP5 PUSH1 0x0 SWAP7 SWAP3 SWAP7 MSTORE PUSH1 0x1 SWAP2 PUSH1 0x20 SWAP3 DUP1 DUP5 MSTORE PUSH1 0x40 PUSH1 0x0 KECCAK256 PUSH2 0x1B5E PUSH1 0x4 DUP3 ADD SLOAD ISZERO ISZERO PUSH2 0x2503 JUMP JUMPDEST PUSH1 0x0 DUP1 MLOAD PUSH1 0x20 PUSH2 0x2B03 DUP4 CODECOPY DUP2 MLOAD SWAP2 MSTORE PUSH1 0x0 MSTORE PUSH1 0x0 DUP6 MSTORE PUSH1 0x40 PUSH1 0x0 KECCAK256 CALLER PUSH1 0x0 MSTORE DUP6 MSTORE PUSH1 0xFF PUSH1 0x40 PUSH1 0x0 KECCAK256 SLOAD AND DUP1 ISZERO PUSH2 0x1E07 JUMPI JUMPDEST DUP1 ISZERO PUSH2 0x1DF4 JUMPI JUMPDEST DUP1 ISZERO PUSH2 0x1DD2 JUMPI JUMPDEST ISZERO PUSH2 0x1D9D JUMPI PUSH1 0x2 DUP2 ADD SWAP1 DUP4 DUP8 GT PUSH2 0x543 JUMPI PUSH2 0x1BBC DUP8 PUSH2 0x467 DUP5 SLOAD PUSH2 0x2452 JUMP JUMPDEST PUSH1 0x0 SWAP2 DUP8 PUSH1 0x1F DUP2 GT PUSH1 0x1 EQ PUSH2 0x1D31 JUMPI DUP1 PUSH2 0x1BEF SWAP2 PUSH1 0x3 SWAP6 PUSH1 0x0 SWAP2 PUSH2 0x1D26 JUMPI JUMPDEST POP DUP2 PUSH1 0x1 SHL SWAP2 PUSH1 0x0 NOT SWAP1 PUSH1 0x3 SHL SHR NOT AND OR SWAP1 JUMP JUMPDEST SWAP1 SSTORE JUMPDEST ADD SWAP2 DUP4 GT PUSH2 0x543 JUMPI PUSH2 0x1C08 DUP4 PUSH2 0x467 DUP5 SLOAD PUSH2 0x2452 JUMP JUMPDEST PUSH1 0x0 SWAP1 PUSH1 0x1F DUP5 GT PUSH1 0x1 EQ PUSH2 0x1C9A JUMPI POP SWAP2 PUSH32 0x8F9586B5CB9B032C0C4E4176D5E760B09B3AB8EBEF35A13A6EDD4E28F13D8584 SWAP6 SWAP5 SWAP4 SWAP2 PUSH2 0x1C61 DUP3 DUP1 PUSH2 0x1C8A SWAP7 PUSH1 0x0 SWAP2 PUSH2 0x1C8F JUMPI POP DUP2 PUSH1 0x1 SHL SWAP2 PUSH1 0x0 NOT SWAP1 PUSH1 0x3 SHL SHR NOT AND OR SWAP1 JUMP JUMPDEST SWAP1 SSTORE JUMPDEST PUSH2 0x1C7B PUSH1 0x40 MLOAD SWAP6 DUP7 SWAP6 PUSH1 0x40 DUP8 MSTORE PUSH1 0x40 DUP8 ADD SWAP2 PUSH2 0x24E2 JUMP JUMPDEST SWAP2 DUP5 DUP4 SUB SWAP1 DUP6 ADD MSTORE CALLER SWAP8 PUSH2 0x24E2 JUMP JUMPDEST SUB SWAP1 LOG3 STOP JUMPDEST SWAP1 POP DUP12 ADD CALLDATALOAD DUP13 PUSH2 0x1BDB JUMP JUMPDEST SWAP1 PUSH1 0x1F NOT DUP5 AND SWAP1 DUP4 PUSH1 0x0 MSTORE DUP6 PUSH1 0x0 KECCAK256 SWAP2 PUSH1 0x0 JUMPDEST DUP12 DUP3 DUP3 LT PUSH2 0x1D12 JUMPI POP POP SWAP2 DUP6 SWAP4 SWAP2 PUSH2 0x1C8A SWAP7 PUSH32 0x8F9586B5CB9B032C0C4E4176D5E760B09B3AB8EBEF35A13A6EDD4E28F13D8584 SWAP11 SWAP10 SWAP9 SWAP7 SWAP5 LT PUSH2 0x1CF8 JUMPI JUMPDEST POP POP DUP3 DUP2 SHL ADD SWAP1 SSTORE PUSH2 0x1C64 JUMP JUMPDEST DUP12 ADD CALLDATALOAD PUSH1 0x0 NOT PUSH1 0x3 DUP7 SWAP1 SHL PUSH1 0xF8 AND SHR NOT AND SWAP1 SSTORE DUP11 DUP1 PUSH2 0x1CEB JUMP JUMPDEST DUP4 ADD CALLDATALOAD DUP5 SSTORE SWAP3 DUP5 ADD SWAP3 SWAP2 DUP8 ADD SWAP2 DUP8 ADD PUSH2 0x1CAD JUMP JUMPDEST SWAP1 POP DUP12 ADD CALLDATALOAD DUP15 PUSH2 0x1BDB JUMP JUMPDEST POP DUP9 SWAP3 PUSH1 0x1F NOT DUP10 AND SWAP1 DUP3 PUSH1 0x0 MSTORE DUP10 DUP10 PUSH1 0x0 KECCAK256 SWAP3 PUSH1 0x0 JUMPDEST DUP12 DUP10 DUP4 DUP4 LT PUSH2 0x1D83 JUMPI POP POP POP PUSH1 0x3 SWAP7 POP LT PUSH2 0x1D6B JUMPI JUMPDEST POP POP DUP4 DUP9 DUP2 SHL ADD SWAP1 SSTORE PUSH2 0x1BF2 JUMP JUMPDEST DUP11 ADD CALLDATALOAD PUSH1 0x0 NOT DUP11 DUP7 SHL PUSH1 0xF8 AND SHR NOT AND SWAP1 SSTORE DUP12 DUP1 PUSH2 0x1D5D JUMP JUMPDEST SWAP9 DUP6 ADD CALLDATALOAD DUP7 SSTORE DUP15 SWAP9 SWAP6 SWAP1 SWAP6 ADD SWAP5 SWAP4 DUP5 ADD SWAP4 DUP14 SWAP4 POP ADD PUSH2 0x1D47 JUMP JUMPDEST PUSH1 0x40 MLOAD PUSH3 0x461BCD PUSH1 0xE5 SHL DUP2 MSTORE PUSH1 0x4 DUP2 ADD DUP7 SWAP1 MSTORE PUSH1 0xD PUSH1 0x24 DUP3 ADD MSTORE PUSH13 0x3737903832B936B4B9B9B4B7B7 PUSH1 0x99 SHL PUSH1 0x44 DUP3 ADD MSTORE PUSH1 0x64 SWAP1 REVERT JUMPDEST POP DUP8 PUSH1 0x0 MSTORE PUSH1 0x2 DUP6 MSTORE PUSH1 0x40 PUSH1 0x0 KECCAK256 CALLER PUSH1 0x0 MSTORE DUP6 MSTORE PUSH1 0xFF PUSH1 0x40 PUSH1 0x0 KECCAK256 SLOAD AND PUSH2 0x1B9D JUMP JUMPDEST POP DUP1 SLOAD PUSH1 0x1 PUSH1 0x1 PUSH1 0xA0 SHL SUB AND CALLER EQ PUSH2 0x1B96 JUMP JUMPDEST POP PUSH1 0x0 DUP1 MSTORE PUSH1 0x0 DUP6 MSTORE PUSH1 0x40 PUSH1 0x0 KECCAK256 CALLER PUSH1 0x0 MSTORE DUP6 MSTORE PUSH1 0xFF PUSH1 0x40 PUSH1 0x0 KECCAK256 SLOAD AND PUSH2 0x1B8F JUMP JUMPDEST CALLVALUE PUSH2 0x166 JUMPI PUSH1 0x80 CALLDATASIZE PUSH1 0x3 NOT ADD SLT PUSH2 0x166 JUMPI PUSH2 0x1E42 PUSH2 0x22F8 JUMP JUMPDEST PUSH1 0x1 PUSH1 0x1 PUSH1 0x40 SHL SUB PUSH1 0x44 CALLDATALOAD DUP2 DUP2 GT PUSH2 0x166 JUMPI PUSH2 0x1E62 SWAP1 CALLDATASIZE SWAP1 PUSH1 0x4 ADD PUSH2 0x2324 JUMP JUMPDEST SWAP1 SWAP2 PUSH1 0x64 CALLDATALOAD DUP2 DUP2 GT PUSH2 0x166 JUMPI PUSH2 0x1E7C SWAP1 CALLDATASIZE SWAP1 PUSH1 0x4 ADD PUSH2 0x2324 JUMP JUMPDEST CALLER PUSH1 0x0 SWAP1 DUP2 MSTORE PUSH32 0xDF1CB6F79B8687A60E91ACED08290A53CB47A179B80C0C7C836D1C923C9A5647 PUSH1 0x20 MSTORE PUSH1 0x40 SWAP1 KECCAK256 SLOAD PUSH1 0xFF AND DUP1 ISZERO PUSH2 0x226D JUMPI JUMPDEST DUP1 ISZERO PUSH2 0x2235 JUMPI JUMPDEST PUSH2 0x1EC5 SWAP1 PUSH2 0x2391 JUMP JUMPDEST PUSH1 0x1 PUSH1 0x1 PUSH1 0xA0 SHL SUB SWAP3 DUP7 DUP5 AND ISZERO PUSH2 0x21FD JUMPI PUSH1 0x4 CALLDATALOAD PUSH1 0x0 MSTORE PUSH1 0x1 PUSH1 0x20 MSTORE PUSH1 0x4 PUSH1 0x40 PUSH1 0x0 KECCAK256 ADD SLOAD PUSH2 0x21CF JUMPI PUSH1 0x40 MLOAD SWAP2 PUSH2 0x1EFB DUP4 PUSH2 0x23D0 JUMP JUMPDEST DUP5 DUP9 AND DUP4 MSTORE PUSH2 0x1F25 PUSH1 0x20 DUP5 ADD SWAP5 CALLER DUP7 MSTORE PUSH2 0x1F16 CALLDATASIZE DUP10 DUP12 PUSH2 0x240C JUMP JUMPDEST SWAP3 PUSH1 0x40 DUP7 ADD SWAP4 DUP5 MSTORE CALLDATASIZE SWAP2 PUSH2 0x240C JUMP JUMPDEST PUSH1 0x60 DUP5 ADD MSTORE TIMESTAMP PUSH1 0x80 DUP5 ADD MSTORE PUSH1 0x4 CALLDATALOAD PUSH1 0x0 MSTORE PUSH1 0x1 PUSH1 0x20 MSTORE PUSH1 0x40 PUSH1 0x0 KECCAK256 SWAP4 DUP6 DUP5 MLOAD AND PUSH1 0x1 PUSH1 0x1 PUSH1 0x60 SHL SUB PUSH1 0xA0 SHL SWAP1 DUP2 DUP8 SLOAD AND OR DUP7 SSTORE DUP7 PUSH1 0x1 DUP8 ADD SWAP3 MLOAD AND SWAP1 DUP3 SLOAD AND OR SWAP1 SSTORE PUSH1 0x2 DUP5 ADD SWAP1 MLOAD DUP1 MLOAD SWAP1 DUP4 DUP3 GT PUSH2 0x543 JUMPI PUSH2 0x1F85 DUP3 PUSH2 0xBB1 DUP6 SLOAD PUSH2 0x2452 JUMP JUMPDEST PUSH1 0x20 SWAP1 PUSH1 0x1F DUP4 GT PUSH1 0x1 EQ PUSH2 0x2167 JUMPI PUSH2 0x1FB5 SWAP3 SWAP2 PUSH1 0x0 SWAP2 DUP4 PUSH2 0x215C JUMPI POP POP DUP2 PUSH1 0x1 SHL SWAP2 PUSH1 0x0 NOT SWAP1 PUSH1 0x3 SHL SHR NOT AND OR SWAP1 JUMP JUMPDEST SWAP1 SSTORE JUMPDEST PUSH1 0x60 DUP3 ADD MLOAD DUP1 MLOAD SWAP2 DUP3 GT PUSH2 0x543 JUMPI PUSH2 0x1FE0 DUP3 PUSH2 0x1FD7 PUSH1 0x3 DUP8 ADD SLOAD PUSH2 0x2452 JUMP JUMPDEST PUSH1 0x3 DUP8 ADD PUSH2 0x248C JUMP JUMPDEST PUSH1 0x20 SWAP1 PUSH1 0x1F DUP4 GT PUSH1 0x1 EQ PUSH2 0x20C2 JUMPI PUSH31 0x73D3C2A84F8F8E279A002E4D9D8AED780EFAE1E49EF555BD671D416A3F9D86 SWAP6 SWAP4 PUSH2 0x203B DUP5 PUSH2 0x20B2 SWAP8 SWAP6 PUSH1 0x4 SWAP6 PUSH1 0x80 SWAP6 PUSH1 0x0 SWAP3 PUSH2 0x20B7 JUMPI POP POP DUP2 PUSH1 0x1 SHL SWAP2 PUSH1 0x0 NOT SWAP1 PUSH1 0x3 SHL SHR NOT AND OR SWAP1 JUMP JUMPDEST PUSH1 0x3 DUP6 ADD SSTORE JUMPDEST ADD MLOAD SWAP2 ADD SSTORE PUSH1 0x4 CALLDATALOAD PUSH1 0x0 MSTORE PUSH1 0x2 PUSH1 0x20 MSTORE PUSH1 0x40 PUSH1 0x0 KECCAK256 DUP2 DUP8 AND PUSH1 0x0 MSTORE PUSH1 0x20 MSTORE PUSH1 0x40 PUSH1 0x0 KECCAK256 PUSH1 0xFF NOT SWAP1 PUSH1 0x1 DUP3 DUP3 SLOAD AND OR SWAP1 SSTORE PUSH1 0x4 CALLDATALOAD PUSH1 0x0 MSTORE PUSH1 0x2 PUSH1 0x20 MSTORE PUSH1 0x40 PUSH1 0x0 KECCAK256 CALLER PUSH1 0x0 MSTORE PUSH1 0x20 MSTORE PUSH1 0x1 PUSH1 0x40 PUSH1 0x0 KECCAK256 SWAP2 DUP3 SLOAD AND OR SWAP1 SSTORE PUSH1 0x40 MLOAD SWAP2 DUP3 SWAP2 PUSH1 0x20 DUP4 MSTORE CALLER SWAP8 AND SWAP6 PUSH1 0x4 CALLDATALOAD SWAP6 PUSH1 0x20 DUP5 ADD SWAP2 PUSH2 0x24E2 JUMP JUMPDEST SUB SWAP1 LOG4 STOP JUMPDEST ADD MLOAD SWAP1 POP DUP14 DUP1 PUSH2 0x35F JUMP JUMPDEST SWAP1 PUSH1 0x3 DUP6 ADD PUSH1 0x0 MSTORE PUSH1 0x20 PUSH1 0x0 KECCAK256 SWAP2 PUSH1 0x0 JUMPDEST PUSH1 0x1F NOT DUP6 AND DUP2 LT PUSH2 0x2144 JUMPI POP SWAP4 PUSH1 0x1 DUP5 PUSH1 0x4 SWAP5 PUSH1 0x80 SWAP5 PUSH31 0x73D3C2A84F8F8E279A002E4D9D8AED780EFAE1E49EF555BD671D416A3F9D86 SWAP11 SWAP9 PUSH2 0x20B2 SWAP11 SWAP9 PUSH1 0x1F NOT DUP2 AND LT PUSH2 0x212B JUMPI JUMPDEST POP POP POP DUP2 SHL ADD PUSH1 0x3 DUP6 ADD SSTORE PUSH2 0x2041 JUMP JUMPDEST ADD MLOAD PUSH1 0x0 NOT PUSH1 0xF8 DUP5 PUSH1 0x3 SHL AND SHR NOT AND SWAP1 SSTORE DUP13 DUP1 DUP1 PUSH2 0x211B JUMP JUMPDEST SWAP2 SWAP3 PUSH1 0x20 PUSH1 0x1 DUP2 SWAP3 DUP7 DUP6 ADD MLOAD DUP2 SSTORE ADD SWAP5 ADD SWAP3 ADD PUSH2 0x20D3 JUMP JUMPDEST ADD MLOAD SWAP1 POP DUP12 DUP1 PUSH2 0x35F JUMP JUMPDEST SWAP1 PUSH1 0x1F NOT DUP4 AND SWAP2 DUP5 PUSH1 0x0 MSTORE PUSH1 0x20 PUSH1 0x0 KECCAK256 SWAP3 PUSH1 0x0 JUMPDEST DUP2 DUP2 LT PUSH2 0x21B7 JUMPI POP SWAP1 DUP5 PUSH1 0x1 SWAP6 SWAP5 SWAP4 SWAP3 LT PUSH2 0x219E JUMPI JUMPDEST POP POP POP DUP2 SHL ADD SWAP1 SSTORE PUSH2 0x1FB8 JUMP JUMPDEST ADD MLOAD PUSH1 0x0 NOT PUSH1 0xF8 DUP5 PUSH1 0x3 SHL AND SHR NOT AND SWAP1 SSTORE DUP11 DUP1 DUP1 PUSH2 0x2191 JUMP JUMPDEST SWAP3 SWAP4 PUSH1 0x20 PUSH1 0x1 DUP2 SWAP3 DUP8 DUP7 ADD MLOAD DUP2 SSTORE ADD SWAP6 ADD SWAP4 ADD PUSH2 0x217B JUMP JUMPDEST PUSH1 0x40 MLOAD PUSH3 0x461BCD PUSH1 0xE5 SHL DUP2 MSTORE PUSH1 0x20 PUSH1 0x4 DUP3 ADD MSTORE PUSH1 0x6 PUSH1 0x24 DUP3 ADD MSTORE PUSH6 0x657869737473 PUSH1 0xD0 SHL PUSH1 0x44 DUP3 ADD MSTORE PUSH1 0x64 SWAP1 REVERT JUMPDEST PUSH1 0x40 MLOAD PUSH3 0x461BCD PUSH1 0xE5 SHL DUP2 MSTORE PUSH1 0x20 PUSH1 0x4 DUP3 ADD MSTORE PUSH1 0x10 PUSH1 0x24 DUP3 ADD MSTORE PUSH16 0x1C185D1A595B9D081C995C5D5A5C9959 PUSH1 0x82 SHL PUSH1 0x44 DUP3 ADD MSTORE PUSH1 0x64 SWAP1 REVERT JUMPDEST POP CALLER PUSH1 0x0 SWAP1 DUP2 MSTORE PUSH32 0xAD3228B676F7D3CD4284A5443F17F1962B36E491B30A40B2405849E597BA5FB5 PUSH1 0x20 MSTORE PUSH1 0x40 SWAP1 KECCAK256 SLOAD PUSH1 0xFF AND PUSH2 0x1EBC JUMP JUMPDEST POP CALLER PUSH1 0x0 SWAP1 DUP2 MSTORE PUSH32 0x7D7FFB7A348E1C6A02869081A26547B49160DD3DF72D1D75A570EB9B698292EC PUSH1 0x20 MSTORE PUSH1 0x40 SWAP1 KECCAK256 SLOAD PUSH1 0xFF AND PUSH2 0x1EB5 JUMP JUMPDEST CALLVALUE PUSH2 0x166 JUMPI PUSH1 0x20 CALLDATASIZE PUSH1 0x3 NOT ADD SLT PUSH2 0x166 JUMPI PUSH1 0x4 CALLDATALOAD SWAP1 PUSH4 0xFFFFFFFF PUSH1 0xE0 SHL DUP3 AND DUP1 SWAP3 SUB PUSH2 0x166 JUMPI PUSH1 0x20 SWAP2 PUSH4 0x7965DB0B PUSH1 0xE0 SHL DUP2 EQ SWAP1 DUP2 ISZERO PUSH2 0x22E7 JUMPI JUMPDEST POP ISZERO ISZERO DUP2 MSTORE RETURN JUMPDEST PUSH4 0x1FFC9A7 PUSH1 0xE0 SHL EQ SWAP1 POP DUP4 PUSH2 0x22E0 JUMP JUMPDEST PUSH1 0x24 CALLDATALOAD SWAP1 PUSH1 0x1 PUSH1 0x1 PUSH1 0xA0 SHL SUB DUP3 AND DUP3 SUB PUSH2 0x166 JUMPI JUMP JUMPDEST PUSH1 0x4 CALLDATALOAD SWAP1 PUSH1 0x1 PUSH1 0x1 PUSH1 0xA0 SHL SUB DUP3 AND DUP3 SUB PUSH2 0x166 JUMPI JUMP JUMPDEST SWAP2 DUP2 PUSH1 0x1F DUP5 ADD SLT ISZERO PUSH2 0x166 JUMPI DUP3 CALLDATALOAD SWAP2 PUSH1 0x1 PUSH1 0x1 PUSH1 0x40 SHL SUB DUP4 GT PUSH2 0x166 JUMPI PUSH1 0x20 DUP4 DUP2 DUP7 ADD SWAP6 ADD ADD GT PUSH2 0x166 JUMPI JUMP JUMPDEST SWAP2 SWAP1 DUP3 MLOAD SWAP3 DUP4 DUP3 MSTORE PUSH1 0x0 JUMPDEST DUP5 DUP2 LT PUSH2 0x237D JUMPI POP POP DUP3 PUSH1 0x0 PUSH1 0x20 DUP1 SWAP5 SWAP6 DUP5 ADD ADD MSTORE PUSH1 0x1F DUP1 NOT SWAP2 ADD AND ADD ADD SWAP1 JUMP JUMPDEST PUSH1 0x20 DUP2 DUP4 ADD DUP2 ADD MLOAD DUP5 DUP4 ADD DUP3 ADD MSTORE ADD PUSH2 0x235C JUMP JUMPDEST ISZERO PUSH2 0x2398 JUMPI JUMP JUMPDEST PUSH1 0x40 MLOAD PUSH3 0x461BCD PUSH1 0xE5 SHL DUP2 MSTORE PUSH1 0x20 PUSH1 0x4 DUP3 ADD MSTORE PUSH1 0x10 PUSH1 0x24 DUP3 ADD MSTORE PUSH16 0x3737BA103237B1BA37B917B0B236B4B7 PUSH1 0x81 SHL PUSH1 0x44 DUP3 ADD MSTORE PUSH1 0x64 SWAP1 REVERT JUMPDEST PUSH1 0xA0 DUP2 ADD SWAP1 DUP2 LT PUSH1 0x1 PUSH1 0x1 PUSH1 0x40 SHL SUB DUP3 GT OR PUSH2 0x543 JUMPI PUSH1 0x40 MSTORE JUMP JUMPDEST SWAP1 PUSH1 0x1F DUP1 NOT SWAP2 ADD AND DUP2 ADD SWAP1 DUP2 LT PUSH1 0x1 PUSH1 0x1 PUSH1 0x40 SHL SUB DUP3 GT OR PUSH2 0x543 JUMPI PUSH1 0x40 MSTORE JUMP JUMPDEST SWAP3 SWAP2 SWAP3 PUSH1 0x1 PUSH1 0x1 PUSH1 0x40 SHL SUB DUP3 GT PUSH2 0x543 JUMPI PUSH1 0x40 MLOAD SWAP2 PUSH2 0x2435 PUSH1 0x1F DUP3 ADD PUSH1 0x1F NOT AND PUSH1 0x20 ADD DUP5 PUSH2 0x23EB JUMP JUMPDEST DUP3 SWAP5 DUP2 DUP5 MSTORE DUP2 DUP4 ADD GT PUSH2 0x166 JUMPI DUP3 DUP2 PUSH1 0x20 SWAP4 DUP5 PUSH1 0x0 SWAP7 ADD CALLDATACOPY ADD ADD MSTORE JUMP JUMPDEST SWAP1 PUSH1 0x1 DUP3 DUP2 SHR SWAP3 AND DUP1 ISZERO PUSH2 0x2482 JUMPI JUMPDEST PUSH1 0x20 DUP4 LT EQ PUSH2 0x246C JUMPI JUMP JUMPDEST PUSH4 0x4E487B71 PUSH1 0xE0 SHL PUSH1 0x0 MSTORE PUSH1 0x22 PUSH1 0x4 MSTORE PUSH1 0x24 PUSH1 0x0 REVERT JUMPDEST SWAP2 PUSH1 0x7F AND SWAP2 PUSH2 0x2461 JUMP JUMPDEST SWAP1 PUSH1 0x1F DUP2 GT PUSH2 0x249A JUMPI POP POP POP JUMP JUMPDEST PUSH1 0x0 SWAP2 PUSH1 0x0 MSTORE PUSH1 0x20 PUSH1 0x0 KECCAK256 SWAP1 PUSH1 0x20 PUSH1 0x1F DUP6 ADD PUSH1 0x5 SHR DUP4 ADD SWAP5 LT PUSH2 0x24D8 JUMPI JUMPDEST PUSH1 0x1F ADD PUSH1 0x5 SHR ADD SWAP2 JUMPDEST DUP3 DUP2 LT PUSH2 0x24CD JUMPI POP POP POP JUMP JUMPDEST DUP2 DUP2 SSTORE PUSH1 0x1 ADD PUSH2 0x24C1 JUMP JUMPDEST SWAP1 SWAP3 POP DUP3 SWAP1 PUSH2 0x24B8 JUMP JUMPDEST SWAP1 DUP1 PUSH1 0x20 SWAP4 SWAP3 DUP2 DUP5 MSTORE DUP5 DUP5 ADD CALLDATACOPY PUSH1 0x0 DUP3 DUP3 ADD DUP5 ADD MSTORE PUSH1 0x1F ADD PUSH1 0x1F NOT AND ADD ADD SWAP1 JUMP JUMPDEST ISZERO PUSH2 0x250A JUMPI JUMP JUMPDEST PUSH1 0x40 MLOAD PUSH3 0x461BCD PUSH1 0xE5 SHL DUP2 MSTORE PUSH1 0x20 PUSH1 0x4 DUP3 ADD MSTORE PUSH1 0x9 PUSH1 0x24 DUP3 ADD MSTORE PUSH9 0x1B9BDD08199BDD5B99 PUSH1 0xBA SHL PUSH1 0x44 DUP3 ADD MSTORE PUSH1 0x64 SWAP1 REVERT JUMPDEST SWAP1 PUSH1 0x40 MLOAD SWAP2 DUP3 PUSH1 0x0 DUP3 SLOAD PUSH2 0x254E DUP2 PUSH2 0x2452 JUMP JUMPDEST SWAP1 DUP2 DUP5 MSTORE PUSH1 0x20 SWAP5 PUSH1 0x1 SWAP2 PUSH1 0x1 DUP2 AND SWAP1 DUP2 PUSH1 0x0 EQ PUSH2 0x25BE JUMPI POP PUSH1 0x1 EQ PUSH2 0x257F JUMPI JUMPDEST POP POP POP PUSH2 0x257D SWAP3 POP SUB DUP4 PUSH2 0x23EB JUMP JUMPDEST JUMP JUMPDEST PUSH1 0x0 SWAP1 DUP2 MSTORE DUP6 DUP2 KECCAK256 SWAP6 SWAP4 POP SWAP2 SWAP1 JUMPDEST DUP2 DUP4 LT PUSH2 0x25A6 JUMPI POP POP PUSH2 0x257D SWAP4 POP DUP3 ADD ADD CODESIZE DUP1 DUP1 PUSH2 0x256E JUMP JUMPDEST DUP6 SLOAD DUP9 DUP5 ADD DUP6 ADD MSTORE SWAP5 DUP6 ADD SWAP5 DUP8 SWAP5 POP SWAP2 DUP4 ADD SWAP2 PUSH2 0x258D JUMP JUMPDEST SWAP3 POP POP POP PUSH2 0x257D SWAP5 SWAP3 POP PUSH1 0xFF NOT AND DUP3 DUP5 ADD MSTORE ISZERO ISZERO PUSH1 0x5 SHL DUP3 ADD ADD CODESIZE DUP1 DUP1 PUSH2 0x256E JUMP JUMPDEST ISZERO PUSH2 0x25E7 JUMPI JUMP JUMPDEST PUSH1 0x40 MLOAD PUSH3 0x461BCD PUSH1 0xE5 SHL DUP2 MSTORE PUSH1 0x20 PUSH1 0x4 DUP3 ADD MSTORE PUSH1 0xF PUSH1 0x24 DUP3 ADD MSTORE PUSH15 0x3737BA1037BBB732B917B0B236B4B7 PUSH1 0x89 SHL PUSH1 0x44 DUP3 ADD MSTORE PUSH1 0x64 SWAP1 REVERT JUMPDEST ISZERO PUSH2 0x2625 JUMPI JUMP JUMPDEST PUSH1 0x40 MLOAD PUSH3 0x461BCD PUSH1 0xE5 SHL DUP2 MSTORE PUSH1 0x20 PUSH1 0x4 DUP3 ADD MSTORE PUSH1 0x9 PUSH1 0x24 DUP3 ADD MSTORE PUSH9 0x3737BA1030B236B4B7 PUSH1 0xB9 SHL PUSH1 0x44 DUP3 ADD MSTORE PUSH1 0x64 SWAP1 REVERT JUMPDEST ISZERO PUSH2 0x265D JUMPI JUMP JUMPDEST PUSH1 0x40 MLOAD PUSH3 0x461BCD PUSH1 0xE5 SHL DUP2 MSTORE PUSH1 0x20 PUSH1 0x4 DUP3 ADD MSTORE PUSH1 0x1C PUSH1 0x24 DUP3 ADD MSTORE PUSH32 0x4848204E756D62657220616C7265616479207265676973746572656400000000 PUSH1 0x44 DUP3 ADD MSTORE PUSH1 0x64 SWAP1 REVERT JUMPDEST SWAP1 PUSH1 0x0 DUP3 DUP2 MSTORE PUSH1 0x20 SWAP2 PUSH1 0x1 DUP4 MSTORE PUSH1 0x40 SWAP3 DUP4 DUP4 KECCAK256 PUSH1 0x4 DUP2 ADD SLOAD ISZERO PUSH2 0x273C JUMPI SLOAD PUSH1 0x1 PUSH1 0x1 PUSH1 0xA0 SHL SUB SWAP3 DUP4 AND SWAP3 AND DUP3 EQ PUSH2 0x2717 JUMPI PUSH1 0x0 DUP1 MLOAD PUSH1 0x20 PUSH2 0x2B03 DUP4 CODECOPY DUP2 MLOAD SWAP2 MSTORE DUP4 MSTORE DUP3 DUP2 MSTORE DUP4 DUP4 KECCAK256 DUP3 DUP5 MSTORE DUP2 MSTORE PUSH1 0xFF DUP5 DUP5 KECCAK256 SLOAD AND DUP1 ISZERO PUSH2 0x2721 JUMPI JUMPDEST PUSH2 0x2717 JUMPI PUSH1 0xFF SWAP5 DUP4 MSTORE PUSH1 0x2 DUP2 MSTORE DUP4 DUP4 KECCAK256 SWAP2 DUP4 MSTORE MSTORE KECCAK256 SLOAD AND SWAP1 JUMP JUMPDEST POP POP POP POP POP PUSH1 0x1 SWAP1 JUMP JUMPDEST POP DUP3 DUP1 MSTORE DUP3 DUP2 MSTORE DUP4 DUP4 KECCAK256 DUP3 DUP5 MSTORE DUP2 MSTORE PUSH1 0xFF DUP5 DUP5 KECCAK256 SLOAD AND PUSH2 0x26FD JUMP JUMPDEST POP POP POP SWAP2 POP POP SWAP1 JUMP JUMPDEST DUP1 PUSH1 0x0 MSTORE PUSH1 0x0 PUSH1 0x20 MSTORE PUSH1 0x40 PUSH1 0x0 KECCAK256 CALLER PUSH1 0x0 MSTORE PUSH1 0x20 MSTORE PUSH1 0xFF PUSH1 0x40 PUSH1 0x0 KECCAK256 SLOAD AND ISZERO PUSH2 0x276B JUMPI POP JUMP JUMPDEST PUSH1 0x44 SWAP1 PUSH1 0x40 MLOAD SWAP1 PUSH4 0xE2517D3F PUSH1 0xE0 SHL DUP3 MSTORE CALLER PUSH1 0x4 DUP4 ADD MSTORE PUSH1 0x24 DUP3 ADD MSTORE REVERT JUMPDEST PUSH1 0x1 PUSH1 0x1 PUSH1 0xA0 SHL SUB AND PUSH1 0x0 DUP2 DUP2 MSTORE PUSH32 0xDF1CB6F79B8687A60E91ACED08290A53CB47A179B80C0C7C836D1C923C9A5647 PUSH1 0x20 MSTORE PUSH1 0x40 DUP2 KECCAK256 SLOAD SWAP1 SWAP2 SWAP1 PUSH1 0x0 DUP1 MLOAD PUSH1 0x20 PUSH2 0x2AE3 DUP4 CODECOPY DUP2 MLOAD SWAP2 MSTORE SWAP1 PUSH1 0xFF AND PUSH2 0x2812 JUMPI DUP1 DUP4 MSTORE DUP3 PUSH1 0x20 MSTORE PUSH1 0x40 DUP4 KECCAK256 DUP3 DUP5 MSTORE PUSH1 0x20 MSTORE PUSH1 0x40 DUP4 KECCAK256 PUSH1 0x1 PUSH1 0xFF NOT DUP3 SLOAD AND OR SWAP1 SSTORE PUSH1 0x0 DUP1 MLOAD PUSH1 0x20 PUSH2 0x2AC3 DUP4 CODECOPY DUP2 MLOAD SWAP2 MSTORE CALLER SWAP4 DUP1 LOG4 PUSH1 0x1 SWAP1 JUMP JUMPDEST POP POP SWAP1 JUMP JUMPDEST PUSH1 0x1 PUSH1 0x1 PUSH1 0xA0 SHL SUB AND PUSH1 0x0 DUP2 DUP2 MSTORE PUSH32 0x1269C68C28A67305F4A2D47532888D6C961251CFCB06C9CDB6066D32B24B320 PUSH1 0x20 MSTORE PUSH1 0x40 DUP2 KECCAK256 SLOAD SWAP1 SWAP2 SWAP1 PUSH32 0x72606200FAC42B7DC86B75901D61ECFAB2A4A1A6EDED478B97A428094891ABED SWAP1 PUSH1 0xFF AND PUSH2 0x2812 JUMPI DUP1 DUP4 MSTORE DUP3 PUSH1 0x20 MSTORE PUSH1 0x40 DUP4 KECCAK256 DUP3 DUP5 MSTORE PUSH1 0x20 MSTORE PUSH1 0x40 DUP4 KECCAK256 PUSH1 0x1 PUSH1 0xFF NOT DUP3 SLOAD AND OR SWAP1 SSTORE PUSH1 0x0 DUP1 MLOAD PUSH1 0x20 PUSH2 0x2AC3 DUP4 CODECOPY DUP2 MLOAD SWAP2 MSTORE CALLER SWAP4 DUP1 LOG4 PUSH1 0x1 SWAP1 JUMP JUMPDEST PUSH1 0x1 PUSH1 0x1 PUSH1 0xA0 SHL SUB AND PUSH1 0x0 DUP2 DUP2 MSTORE PUSH32 0x232D22163C77B4A0F291591077EF3091C0CB2E3EE6D9DE0538D0EDEA819CAD5A PUSH1 0x20 MSTORE PUSH1 0x40 DUP2 KECCAK256 SLOAD SWAP1 SWAP2 SWAP1 PUSH32 0x365427A77302F6C15E25FBB39B2016B6CFDC7982B9E30691E61947A1D364EA90 SWAP1 PUSH1 0xFF AND PUSH2 0x2812 JUMPI DUP1 DUP4 MSTORE DUP3 PUSH1 0x20 MSTORE PUSH1 0x40 DUP4 KECCAK256 DUP3 DUP5 MSTORE PUSH1 0x20 MSTORE PUSH1 0x40 DUP4 KECCAK256 PUSH1 0x1 PUSH1 0xFF NOT DUP3 SLOAD AND OR SWAP1 SSTORE PUSH1 0x0 DUP1 MLOAD PUSH1 0x20 PUSH2 0x2AC3 DUP4 CODECOPY DUP2 MLOAD SWAP2 MSTORE CALLER SWAP4 DUP1 LOG4 PUSH1 0x1 SWAP1 JUMP JUMPDEST SWAP1 PUSH1 0x0 SWAP2 DUP1 DUP4 MSTORE DUP3 PUSH1 0x20 MSTORE PUSH1 0x40 DUP4 KECCAK256 SWAP2 PUSH1 0x1 DUP1 PUSH1 0xA0 SHL SUB AND SWAP2 DUP3 DUP5 MSTORE PUSH1 0x20 MSTORE PUSH1 0xFF PUSH1 0x40 DUP5 KECCAK256 SLOAD AND ISZERO PUSH1 0x0 EQ PUSH2 0x2812 JUMPI DUP1 DUP4 MSTORE DUP3 PUSH1 0x20 MSTORE PUSH1 0x40 DUP4 KECCAK256 DUP3 DUP5 MSTORE PUSH1 0x20 MSTORE PUSH1 0x40 DUP4 KECCAK256 PUSH1 0x1 PUSH1 0xFF NOT DUP3 SLOAD AND OR SWAP1 SSTORE PUSH1 0x0 DUP1 MLOAD PUSH1 0x20 PUSH2 0x2AC3 DUP4 CODECOPY DUP2 MLOAD SWAP2 MSTORE CALLER SWAP4 DUP1 LOG4 PUSH1 0x1 SWAP1 JUMP JUMPDEST PUSH1 0x1 PUSH1 0x1 PUSH1 0xA0 SHL SUB AND PUSH1 0x0 DUP2 DUP2 MSTORE PUSH32 0xDF1CB6F79B8687A60E91ACED08290A53CB47A179B80C0C7C836D1C923C9A5647 PUSH1 0x20 MSTORE PUSH1 0x40 DUP2 KECCAK256 SLOAD SWAP1 SWAP2 SWAP1 PUSH1 0x0 DUP1 MLOAD PUSH1 0x20 PUSH2 0x2AE3 DUP4 CODECOPY DUP2 MLOAD SWAP2 MSTORE SWAP1 PUSH1 0xFF AND ISZERO PUSH2 0x2812 JUMPI DUP1 DUP4 MSTORE DUP3 PUSH1 0x20 MSTORE PUSH1 0x40 DUP4 KECCAK256 DUP3 DUP5 MSTORE PUSH1 0x20 MSTORE PUSH1 0x40 DUP4 KECCAK256 PUSH1 0xFF NOT DUP2 SLOAD AND SWAP1 SSTORE PUSH32 0xF6391F5C32D9C69D2A47EA670B442974B53935D1EDC7FD64EB21E047A839171B CALLER SWAP4 DUP1 LOG4 PUSH1 0x1 SWAP1 JUMP JUMPDEST SWAP1 PUSH1 0x0 SWAP2 DUP1 DUP4 MSTORE DUP3 PUSH1 0x20 MSTORE PUSH1 0x40 DUP4 KECCAK256 SWAP2 PUSH1 0x1 DUP1 PUSH1 0xA0 SHL SUB AND SWAP2 DUP3 DUP5 MSTORE PUSH1 0x20 MSTORE PUSH1 0xFF PUSH1 0x40 DUP5 KECCAK256 SLOAD AND PUSH1 0x0 EQ PUSH2 0x2812 JUMPI DUP1 DUP4 MSTORE DUP3 PUSH1 0x20 MSTORE PUSH1 0x40 DUP4 KECCAK256 DUP3 DUP5 MSTORE PUSH1 0x20 MSTORE PUSH1 0x40 DUP4 KECCAK256 PUSH1 0xFF NOT DUP2 SLOAD AND SWAP1 SSTORE PUSH32 0xF6391F5C32D9C69D2A47EA670B442974B53935D1EDC7FD64EB21E047A839171B CALLER SWAP4 DUP1 LOG4 PUSH1 0x1 SWAP1 JUMP INVALID 0x2F DUP8 DUP9 GT PUSH31 0x7EFF1D82E926EC794901D17C78024A50270940304540A733656F0D0AF1DAC7 0xDE LOG2 REVERT PUSH32 0x7738119CEC7DF099DFAD49AA9D2E7D17BA6B60F63AE7411FA49807205CE4D355 MULMOD 0x2E CREATE2 0xA8 LOG1 DUP16 JUMP 0xE8 SWAP2 EXTCODECOPY DELEGATECALL LOG2 ADD 0xFB 0xE2 DUP8 DUP3 JUMPDEST MULMOD JUMP SWAP4 0xC2 OR PUSH22 0xA2646970667358221220D5A7538D11B4B553CBFAF2C8 GAS 0x25 0x25 0xCC 0x25 PUSH6 0x99CEF2EC6445 CHAINID DUP15 PUSH26 0x6E285DBC2C64736F6C634300081800332F8788117E7EFF1D82E9 0x26 0xEC PUSH26 0x4901D17C78024A50270940304540A733656F0D00000000000000 "},"methodIdentifiers":{"ADMIN_ROLE()":"75b238fc","DEFAULT_ADMIN_ROLE()":"a217fddf","DIAGNOSTIC_ROLE()":"c7cdf5af","DOCTOR_ROLE()":"fec331f2","PATIENT_ROLE()":"ac5cb97d","addDoctor(address)":"4780468f","createRecord(bytes32,address,string,string)":"07b702ba","getDiagnostic(uint256)":"5ef33cfe","getDoctor(uint256)":"69b0a72d","getDoctorPatients(address)":"ba508467","getPatient(uint256)":"7d3a6796","getRecord(bytes32)":"213681cd","getRoleAdmin(bytes32)":"248a9ca3","grantAccess(bytes32,address)":"40554c3a","grantRole(bytes32,address)":"2f2ff15d","hasAccess(bytes32,address)":"83177db3","hasRole(bytes32,address)":"91d14854","registerDiagnostic(string,string,string,uint256,address)":"90ec8af3","registerDoctor(string,string,string,string,uint256,address)":"c6a33ef9","registerPatient(string,uint256,string,string,string,string,uint256,address)":"7806d4f9","removeDoctor(address)":"98fc90e9","renounceRole(bytes32,address)":"36568abe","revokeAccess(bytes32,address)":"8d53b208","revokeRole(bytes32,address)":"d547741f","supportsInterface(bytes4)":"01ffc9a7","updateRecord(bytes32,string,string)":"0fdf5ca7"}}}}}